:1000000033040500B384050033090600EF00C07F08
:100010003308050033050400B385040033060900E6
:100020009308F0FF630418016318053317080400F0
:10003000130848FD930810002F281809631E083084
:1000400093020000170300001303C3FBB3035340E4
:1000500097E20300938202FB170304001303C3D348
:100060006386620203AF4200130E3000631CCF01AF
:1000700003AE020003AF8200330F7F00330E7E0019
:100080002320EE019382C200E3CE62FC93000000C5
:10009000EF008070173A0400130ACAF6974A04006A
:1000A000938ACA8523200A00130A4A00E34C5AFFA8
:1000B00097020000938282057390523093020000F1
:1000C000370E0080B70E0100938EFEFF130F400025
:1000D00073135001B70300C0B3F3630063667E027D
:1000E000E3E8C3FF3373D30193920201B3E26200EA
:1000F000130FEFFFE34EE0FD17030400130303F1BA
:10010000232053006F004000170A0000130A8A34AE
:1001100073105A309302004073B00231174A040042
:10012000130A4AEEB72A000033015A0133040500CE
:10013000B384050033090600B3890600330A0700BB
:10014000EF00006D33050400B38504003306090099
:10015000B386090033070A0033040500B3840500A1
:1001600033090600B3890600330A0700EF10914EE9
:10017000B302050033050400B3850400330609000B
:10018000B386090033070A00B3850200170704008D
:1001900013074736832B0705032C4705832C870558
:1001A00017420400130202E6B3878B033302F20006
:1001B000170D0000130D0DE5330DA241330292011E
:1001C000330E0200930310001303000033020E00ED
:1001D00033029241B3076C023302F240B7170000BA
:1001E0003302F240170700001307C7E1B307EE40E0
:1001F0002320E2002322F20097070400938787E080
:10020000B387E7402324F2002326A201232892018A
:1002100033040500B384050033090600EF00C05F16
:10022000232AA20033050400B38504003306090025
:1002300033040500B384050033090600EF00405F76
:10024000232CA20033050400B38504003306090003
:1002500033040500B384050033090600EF00C05ED7
:10026000232EA20033050400B385040033060900E1
:1002700017070000130787102320E2021707040066
:10028000130747272322E2021707000013078719E5
:100290002324E2022326020223280202330405005B
:1002A000B384050033090600EF00805A232AA20216
:1002B00033050400B385040033060900232C6202D1
:1002C00033037300E34473F1638C05061307F00FE7
:1002D00033040500B384050033090600EF00C05362
:1002E0003303050033050400B38504003306090019
:1002F000630803046306B304B382050083C372007A
:1003000003CE620083CE520003CF4200131E8E0044
:10031000939E0E01131F8F01B3E3C301B3E3D30117
:10032000B3E3E301B3037300635C730003AE020045
:100330002320C3019382420013034300E34873FE6A
:100340009302100017030400130303CC0F003003C3
:10035000232053006F004002930210001703040093
:10036000130383CA03230300B3C30302B3C303020B
:10037000B3C30302E39262FE93000000EF00C041AA
:1003800073104030170704001307C716832B0705A7
:10039000032C4705832C8706732B40F163800C02E6
:1003A0001307000083A70C0063886701938C4C003F
:1003B00013071700E34877FF330B0700635A7B09E5
:1003C00017420400130202C4B3878B033302F20006
:1003D000B3076C033302F240B71700003302F24058
:1003E0007310023433010200170700001307870758
:1003F000F327103093D7770093F717006386070031
:10040000170700001307071F7310573093020040AF
:1004100073B0023173250034EF50D0136F004003E6
:10042000970304009383030D83A2430583A303056D
:10043000B383B340B383530217430400130383BC55
:1004400033037300B7130000330573406780000067
:10045000730050106FF0DFFF3385050067800000E8
:100460007312023423285202F322003093D2B200D6
:1004700093F2320093A232009382F2FF33414100A3
:10048000B3F2220033414100B342520023AC22F4C4
:10049000138102F583220203232A510073120234CE
:1004A000F322103423205108F32200302322510874
:1004B00023240108232001002322110023263100D8
:1004C00023284100232C6100232E71002320810268
:1004D000232291022324A1022326B1022328C10250
:1004E000232AD102232CE102232EF102232001052D
:1004F0002322110523242105232631052328410524
:10050000232A5105232C6105232E71052320810701
:10051000232291072324A1072326B1072328C107FB
:10052000232AD107232CE107232EF107F3222034BD
:1005300023265108F322303423285108232A0108A6
:10054000232C010893020000232E5108930200403F
:1005500073B0023133050100EFE0505283204500B3
:10056000032185008321C5000322050103238501A2
:100570008323C50103240502832445028325C50284
:100580000326050383264503032785038327C50325
:100590000328050483284504032985048329C50409
:1005A000032A0505832A4505032B8505832BC505ED
:1005B000032C0506832C4506032D8506832DC506D1
:1005C000032E0507832E4507032F8507832FC507B5
:1005D00083224508739002308322050873901234F9
:1005E000832245010325850273002030130000009B
:1005F0007312023423285202F322003093D2B20045
:1006000093F2320093A232009382F2FF3341410011
:10061000B3F2220033414100B342520023AC22F432
:10062000138102F583220203232A5100731202343C
:10063000F322103423205108F322003023225108E2
:10064000F32200312324510823200100232211002A
:100650002326310023284100232C6100232E710022
:1006600023208102232291022324A1022326B10206
:100670002328C102232AD102232CE102232EF102D6
:1006800023200105232211052324210523263105DA
:1006900023284105232A5105232C6105232E7105AA
:1006A00023208107232291072324A1072326B107B2
:1006B0002328C107232AD107232CE107232EF10782
:1006C000F322203423265108F32230342328510802
:1006D000F322B034232A5108F322A034232C5108EA
:1006E000F322003193D2620093F21200232E5108BC
:1006F0009302004073B0023133050100EFE010387F
:1007000083204500032185008321C50003220501C4
:10071000032385018323C5010324050283244502A5
:100720008325C50203260503832645030327850386
:100730008327C5030328050483284504032985046A
:100740008329C504032A0505832A4505032B85054E
:10075000832BC505032C0506832C4506032D850632
:10076000832DC506032E0507832E4507032F850716
:10077000832FC507832285087390023183224508A1
:10078000739002308322050873901234832245014E
:1007900003258502730020300F10000013010000B4
:1007A00093010000130200009302000013030000F5
:1007B000930300001304000093040000930700005B
:1007C00013080000930800001309000093090000BB
:1007D000130A0000930A0000130B0000930B0000A3
:1007E000130C0000930C0000130D0000930D00008B
:1007F000130E0000930E0000130F0000930F000073
:1008000073500034678000001305F0FF678000001C
:10081000678000001300000017F5FFFF1305857EB9
:10082000B70520023305B500678000001300000003
:1008300017F5FFFF1305057DB70540003305B5002B
:10084000678000001300000013051000678000009F
:100850003305000067800000130000000000000066
:10086000730050126FF0DFBF1300000000000000A3
:100870006FC09075130000006FC0907113000000EE
:100880006FC09078130000006FD0000013000000CC
:100890001725040003254590EF10400F13000000BA
:1008A0007300B562678000007300A062678000007B
:1008B00073000562678000007300006267800000BB
:1008C0007300B522678000007300A02267800000DB
:1008D000730005226780000073000022678000001B
:1008E00037070200733007307327203423A0E60057
:1008F0007327303423A2E60023A4060023A60600B3
:1009000023A8060073271034130747007310173409
:1009100073002030130000003707020073300730E7
:100920007327203423A0E6007327303423A2E60087
:100930007327B03423A4E6007327A03423A6E6006F
:1009400073270031135767001377170023A8E600B9
:1009500073271034130747007310173473002030C7
:1009600013000000130101FD2324810223229102C0
:1009700023202103232E3101232611021304010316
:10098000973904009389898883A709009304050097
:10099000138905006382070A03A74702630207025F
:1009A000E70007008320C10203248102832441025F
:1009B000032901028329C10113010103678000009B
:1009C00083A70702638A07046386050A232C410173
:1009D000232A5101130AA000B30AB5006F00C0001A
:1009E00083A7090083A7070203C50400631C450110
:1009F0001305D000E780070083A7090003C50400A2
:100A000083A7070293841400E7800700E39A9AFC07
:100A1000032A8101832A4101130509008320C102B1
:100A20000324810283244102032901028329C10195
:100A30001301010367800000232C4101330AB50034
:100A4000638E050283C70400130610009305F4FDAE
:100A500017F503001305C55B93841400A30FF4FC82
:100A6000EF10801DE39044FF032A81011305090064
:100A70006FF0DFFA130500006FF0DFF2032A810147
:100A8000130500006FF01FF26386050403A705003D
:100A90009307100063FEE7028327050093D6460004
:100AA00093F61600138717002320E5002380C70064
:100AB000832705002380070083A705001387F7FF1E
:100AC00023A0E500638606009387E7FF63820702A1
:100AD0006780000083270500138717002320E500A7
:100AE0002380C7008327050023800700678000005C
:100AF000130101FE232C8100232A910023282101C8
:100B0000232E11001304010213090500938405002C
:100B10001307F00FB305F740172704001307075F0B
:100B20003305F7002326F4FEEFF0DFE38327C4FE4E
:100B30001307E00FB387A700E37CF7FC1727040037
:100B40001307C75C2320E9009307001023A0F400DB
:100B50008320C10103248101832441010329010170
:100B60001301010267800000130101FB23248104AB
:100B70002322910423202105232E3103232C41031A
:100B8000232A51032320A1032326110423286103D0
:100B900013040105930A07009304050013050600DA
:100BA0009389060013090600138D050013FA1A0035
:100BB000EFC0D021B389A94063140A14635E301BCF
:100BC00093D71A0093F71700130B000263840700F2
:100BD000130B0003138A090093860A0013060B0007
:100BE00093050D0013850400130AFAFFEFF0DFE907
:100BF000E3140AFE0347090063060718232671035E
:100C000093DB4A0093F71B00138A0900232EF4FAA2
:100C100093090000930B0900130B100063080D04E7
:100C200083270D00637CFB0283A704001386170053
:100C300023A0C4002380E70083A7040023800700CB
:100C400083270D001387F7FF2320ED009387E7FF2D
:100C5000639607008327C4FB6398070C03C71B0038
:100C600063060702938B1B00E31C0DFA83A70400A5
:100C70001386170023A0C4002380E70083A7040085
:100C80002380070003C71B00E31E07FC33092A412A
:100C900013091900338A2B01832BC102635A3003D5
:100CA000938709001306000263120D0E03A70400C8
:100CB0009387F7FF9306170023A0D4002300C700F3
:100CC00003A7040023000700E39207FE330A3A015A
:100CD0008320C104032481048324410403290104E3
:100CE0008329C103832A4103032B0103032D01023E
:100CF00013050A00032A8103130101056780000020
:100D000003470900130A0000E30A07F823267103CA
:100D100093DB4A0093F71B00232EF4FA930B090090
:100D2000130B10006FF09FEF232481032322910304
:100D3000232EB101930C0000172C0400130C0C3D62
:100D4000930DF00FB3859D4133059C01EFF09FC1DA
:100D5000B38CAC009307E00FE3F697FF23A0840168
:100D6000930700102320FD00032C8102832C4102F5
:100D7000832DC1016FF09FEE03470900E31807F8C8
:100D80006FF01FF5138A09006FF09FF4232671039B
:100D90002324810323229103232EB10113D94A0076
:100DA00083270D0013771900232EE4FA938D090091
:100DB000930A1000130B0600972B0400938B0B353E
:100DC000930CF00F130CE00F63FCFA0283A70400EE
:100DD0001387170023A0E4002380670183A7040082
:100DE0002380070083270D001387E7FF9387F7FF12
:100DF0002320FD00631607000327C4FB63100702CE
:100E0000938DFDFFE3920DFC832BC102032C810225
:100E1000832C4102832DC1016FF05FEB13090000A9
:100E2000B3852C4133852B01EFF0DFB33309A900E3
:100E3000E3782CFF23A07401930700102320FD000A
:100E40006FF01FFC130101F6232C810823225109A6
:100E50001304010A23206109232C8107232E110882
:100E6000232A9108232821091303F006232CE4F6F2
:100E7000232AA4F62328B4F6938A0700130B06004E
:100E8000138C06006304680E937778FF63540305A0
:100E9000130700076388E718930710069304A00060
:100EA000130900002326F4F6A30F04FAB366D60054
:100EB0006394062493070003230FF4FA93F72A00A0
:100EC00063840706232A910713090000930CE4FBAF
:100ED0006F00C02A130700056386E714930778F9AB
:100EE000638607001308C8F9E31808FA93D73A0095
:100EF00093F71700638E070093D7F6413387C740F7
:100F000033B7E700B387D740B387E74063C207181A
:100F100063CC0626A30F04FA3366D6006316061ABE
:100F200093070003230FF4FA1306E4FB13090000F0
:100F3000832684F7832504F7032544F713870A00E3
:100F4000EFF09FC28320C109032481098324410952
:100F5000832A4108032B0108032C8107330525014F
:100F6000032901091301010A67800000A30F04FA95
:100F7000B367D600E38607FA9307100623263109E4
:100F800023244109232E7107232A91072328A1072F
:100F90002326B10793048000130900002326F4F6EA
:100FA000232404F68327C4F6130AF4FB938767FC13
:100FB000232EF4F6138604009306000013050B009D
:100FC00093050C00EF00D127930D0500138D05004C
:100FD00013050B0093050C00138604009306000014
:100FE000EF00912393090B00930B0C00938C0D00E1
:100FF000130B0500138C050063160D00930790007A
:1010000063F6B7018327C4F7B38CB701938C0C0345
:10101000A30F9AFF930CFAFF63027903138A0C0063
:101020006FF05FF913780802936718042326F4F62B
:1010300093040001130900006FF01FE7E3F099FE2D
:1010400013F92A00631A090C13F74A00630A070010
:10105000130700016388E41A930780006384F41C7B
:10106000832784F613860C00638607001386FCFF33
:10107000A38FFCFE8329C108032A8108832BC107A3
:10108000832C4107032D0107832DC1066FF05FEA12
:10109000930710062326F4F69307B002232631099E
:1010A00023244109232E7107232A91072328A1070E
:1010B0002326B107A30F04FA9304A000130900002C
:1010C0002324F4F66FF01FEE930710062326310950
:1010D00023244109232E7107232A91072328A107DE
:1010E0002326B1079304A000130900002326F4F679
:1010F000232404F66FF01FEB232631092324410932
:10110000232E7107232A91072328A1072326B1073D
:10111000232404F66FF01FE9832784F613090000E7
:1011200063840702832504F7032544F71386070029
:1011300093860A00EFF05F95832784F71309100068
:101140009387F7FF232CF4F693F74A00638E07008A
:10115000938784FF33B797001307F7FF93F777FF61
:10116000B3E7E700638607068329C108032A8108DD
:10117000832BC107032D0107832DC10613860C00A5
:10118000832C41076FF0DFDA93071006B306D040D7
:10119000333CC0002326F4F69307D00223263109FE
:1011A00023244109232E7107232A91072328A1070D
:1011B0002326B107338C8641A30F04FA330BC040BA
:1011C0009304A000130900002324F4F66FF09FDDC0
:1011D000832504F7032544F793860A0013060003CA
:1011E000EFF09F8A930700016382F404832784F75A
:1011F0001309190013860C009387F7FF232CF4F6CC
:101200006FF05FE78327C4F613877701A38FECFEA7
:101210009307EAFF13070003A38FE7FE938CF7FF02
:101220006FF01FE493870C006FF0DFFE8327C4F696
:10123000832504F7032544F71386770193860A0074
:10124000EFF09F84832784F71309290013860C008D
:101250009387E7FF232CF4F66FF0DFE1130101FA27
:10126000232C81042322510513040106232E11048B
:10127000232A91042328210523263105232441050F
:10128000232061052326A4FA93070600938A06000B
:10129000630E052E938905006386051C03A70500D0
:1012A0006314074203470600032BC4FA6308071CB4
:1012B000232E7103232C8103232A91032328A103C6
:1012C0002326B1038326C4FA9304000013095002B5
:1012D00013BA1600131A4A00130C0001976D03008D
:1012E000938DCD50930C9000976B0300938B4B54D0
:1012F000631A270D03C61700630C060E138D170023
:1013000093070A006304260D83450D00138605FE2E
:101310001376F60F636CCC00131626003306B60165
:10132000032706003307B7016700070013F717000C
:101330006304070093F7D7FF138705FD9376F70F34
:101340001305000063E4DC029316250083451D00AD
:10135000B386A600939616003305D700138705FDC4
:101360009376F70F130D1D00E3F0DCFE938505FB6C
:1013700093F5F50F13078002130E1D006364B70683
:1013800093952500B385750103A705003307770101
:101390006700070093E71700130D1D006FF0DFF6DD
:1013A00093E74700130D1D006FF01FF693E78700CA
:1013B000130D1D006FF05FF593E72700130D1D005F
:1013C0006FF09FF403C60700138D070093060A0011
:1013D0009385090013050B00EFF00FEB93841400C5
:1013E000130E1D0003471D0093070E00E31207F0C4
:1013F0008327C4FA63840720832BC103032C810352
:10140000832C4103032D0103832DC1028320C105D9
:1014100003248105032901058329C104032A8104CA
:10142000832A4104032B010413850400832441050E
:10143000130101066780000003480D0003A60A009F
:1014400013070500930600009385090013050B00A0
:10145000EFF05F9F938A4A00B384A400130E1D002F
:101460006FF05FF80327C4FA032BC4FA03270700C1
:101470002300070003470600E31C07E29304000073
:101480006FF0DFF803A60A0003480D0013070500FC
:101490009356F6416FF05FFB03A60A009306050022
:1014A00013870700230CC4FA93850900130684FBF5
:1014B00013050B00A30C04FAEFF00FEB938A4A001C
:1014C000B384A400130E1D006FF0DFF103A60A0021
:1014D000938A4A006308061A9306050013870700DB
:1014E0009385090013050B00EFF00FE8B384A40007
:1014F000130E1D006FF01FEF83461D00130F8005B4
:10150000130E1D00638AE61F938EC6F993F5FE0F36
:10151000930F400163EEBF16130710003716120039
:101520003317B700130616823377C700631E070E02
:1015300013078000639EE51403482D00630EE80145
:101540001307C8F91377F70F63E8EF123357E60074
:101550001377170063020712130D2D00938A7A0088
:1015600093FA8AFF03A60A0083A64A001307050020
:101570009385090013050B00EFF0DF8C938A8A0036
:10158000B384A400130E1D006FF0DFE513070010F5
:1015900097260400938646B723A0E6001727040089
:1015A000230607B603470600172A0400130A0AB6E3
:1015B000232E44FB93890600130BC4FB9304000005
:1015C000E31807CE83A706001307F00FE360F7E4E4
:1015D00093090010B389F94013090000172A040089
:1015E000130ACAB2B385294133052A01EFF08FB738
:1015F0003309A900E36839FF6FF05FE19726040023
:10160000938686B083A706001307F00F832BC103D0
:10161000032C8103832C4103032D0103832DC1027D
:10162000E366F7DE6FF0DFFA138F4A00130D0F0049
:101630001388060063860E0C138776F96302070C85
:1016400003A60A001388060013070500930600008E
:101650009385090013050B002324C4FBEFF08FFED4
:10166000032E84FA930A0D00B384A400130D0E0018
:10167000130E1E006FF01FD7130D0E0013089006F7
:101680006FF0DFED17460300130686996FF0DFE475
:1016900013089006138F4A0003A60A0013070500DB
:1016A000938509009356F64113050B002322C4FBD2
:1016B0002324E4FBEFF00FF9032E44FA832A84FA83
:1016C000B384A4006FF01FD20327C4FA03270700D6
:1016D0002300070003470600E30207DA032BC4FADE
:1016E000232E7103232C8103232A91032328A10392
:1016F0002326B1036FF01FBD138D4A006FF05FF416
:10170000130D0E00130E1E006FF01FF99727040033
:1017100083A7C7AF6388070283A787026384070292
:10172000130101FF2324810023261100130401016A
:10173000E78007008320C100032481001301010119
:10174000678000001305F0FF67800000130101FEB1
:10175000232C8100232E110013040102A307A4FEF1
:10176000930510001305F4FEEFF0CF9FE30A05FE8A
:101770008320C1010324810113010102678000005D
:10178000130101FE232E1100232C8100232A910036
:101790001304010293040500172504001305859620
:1017A0002326B4FEEF60012B8325C4FE13850400BD
:1017B000EFF04F9B93040500172504001305859453
:1017C000EF60C12D8320C101032481011385040032
:1017D000832441011301010267800000130101FE0F
:1017E000232C810023282101232E11001304010240
:1017F00013890500638A0504232A910023263101F9
:10180000232441019309050093040000172A0400D2
:10181000130ACA9F83270A006384070483A78702E9
:1018200063800704E7800700B3879900634A0502D5
:101830002380A70093841400E31E99FC83244101B4
:101840008329C100032A81008320C101032481016F
:10185000130509000329010113010102678000003B
:10186000138904006FF09FFD130101FC232E11006A
:10187000232C8100232A9100130401029304050004
:1018800017250400130505882328E400232AF40003
:10189000232C0401232E14012322B4002324C4008A
:1018A0002326D400EF60011B930644001386040036
:1018B00093050000130500002326D4FEEFF01F9AC5
:1018C00093040500172504001305C583EF60011D6F
:1018D0008320C10103248101138504008324410175
:1018E0001301010467800000130101FB232481021E
:1018F00023261102130401032328E400232AF40001
:101900002322B4002324C4002326D400232C040162
:10191000232E1401F327003483A747031307440041
:101920002326E4FE93F72700639C07008320C1026F
:10193000032481021385070013010105678000005D
:10194000232EA4FC171504001305C57BEF6081103E
:101950008326C4FE0326C4FD930500001305000082
:10196000EFF0DF8F232EA4FC1715040013058579F3
:10197000EF60C1128327C4FD8320C10203248102CA
:10198000138507001301010567800000130101FCA6
:10199000232E1100232C8100232A9100130401021D
:1019A00093040500171504001305C5752328E400EA
:1019B000232AF400232C0401232E14012322B40033
:1019C0002324C4002326D400EF60C10893064400FA
:1019D0001386040093050000130500002326D4FE9F
:1019E000EFF0DF87171504001305C571EF60010BD9
:1019F000EF30007A130101FB232481022326110218
:101A000013040103232EA4FC232CB4FC2326D400AE
:101A10002328E400232AF400232C0401232E14019C
:101A200063140500639405029306C400930584FDC6
:101A30001305C4FD2326D4FEEFF05F828320C1028C
:101A4000032481021301010567800000173503009C
:101A50001305855DEFF09FF3130101FF232481003F
:101A600023261100130401018320C10003248100F7
:101A70001715040003258579130101016780000013
:101A8000630E05009717040083A74778638A070051
:101A90009717040023ACA7766780000067800000DA
:101AA000130101FE232C8100232E110013040102D7
:101AB0009717040023ACA7749305E4FE17E5030011
:101AC00013050555EF00002B631805028347E4FE5C
:101AD000A307F4FE930510001305F4FEEFE09FE862
:101AE000E30A05FE9305E4FE17E5030013054552DE
:101AF000EF004028E30C05FC8320C1010324810191
:101B00001301010267800000130706003306D602A6
:101B1000130101FF23248100232611001304010176
:101B20002320B5002315E5002314D500232205004A
:101B3000232605001385050093050000EFB05045EE
:101B40008320C1000324810013010101678000008C
:101B50006306050C6384050C130101FD2324810237
:101B60002322910223202103232E3101232C410122
:101B7000232A5101232611021304010393040500B3
:101B800013054500130A060093890500EF50916C78
:101B900083D7C40013090000930A1000639807005C
:101BA0006F00800803D7C400635EE90283D7E400B6
:101BB00003D7A40013850900B387270163C4E70096
:101BC000B387E74003D7840083A5040013091900F5
:101BD000B307F702B385F500E7000A009307050095
:101BE000E3E2AAFC13854400232EF4FCEF50116BB2
:101BF0008327C4FD8320C102032481028324410280
:101C0000032901028329C101032A8101832A410199
:101C1000138507001301010367800000930720006C
:101C2000138507006780000013854400EF5011679B
:101C3000930720006FF01FFC630A051263880512EA
:101C4000130101FD232481022322910213040103C5
:101C5000232E3101232611029304050013054500AC
:101C6000232EB4FC93090600EF50D15E03D5C400C7
:101C700003D7A4008325C4FD631CE5086380090E17
:101C800083D7E4001305F5FF1315050193871700AB
:101C9000135505019397070193D707012396A400D5
:101CA00063FCE7062397F4003305F5006364E50061
:101CB0003305E54003D684001307200083A7040002
:101CC0006304E608130740006306E60613071000E6
:101CD000631AE60403C70500B387A7002380E70063
:101CE00083D7C40013854400938717002396F4001C
:101CF000EF50D15A130500008320C1020324810252
:101D0000832441028329C10113010103678000007C
:101D100083D7E4006FF05FF9239704009307000076
:101D20006FF09FF83305C5023385A700EFB0D029C7
:101D30006FF01FFB03A7050013152500B387A7004D
:101D400023A0E7006FF0DFF903D705001315150096
:101D5000B387A7002390E7006FF09FF81385440036
:101D6000EF50D153130550C16FF01FF91305D0FF89
:101D700067800000630C050E638A050E130101FEE7
:101D8000232C8100232A910023263101232E1100C8
:101D9000130401029304050013054500938905000F
:101DA000EF50514B83D7C4006386070C03D68400E1
:101DB0001307200083A5040083D7E400630EE60820
:101DC000130740006300E608130710006312E606DD
:101DD000B385F50083C705002380F90083D7E400AD
:101DE00003D7A40083D6C4009387170093970701F5
:101DF00093D7070133B7E7003307E0409386F6FF38
:101E0000B3F7E700138544002397F4002396D4002A
:101E1000EF50D148130500008320C1010324810144
:101E2000832441018329C10013010102678000005E
:101E3000B307F60213850900B385F500EFB0D0189B
:101E40006FF0DFF993972700B385F50083A70500AE
:101E500023A0F9006FF09FF893971700B385F50062
:101E600083D705002390F9006FF05FF71305D0FFCB
:101E70006780000013854400EF505142130520C1D4
:101E80006FF09FF9130101FF2324810023229100A9
:101E9000232021012326110013040101130530051D
:101EA0009384050013090600EF10816D630A050293
:101EB000F3263030173503001305C51B1306090040
:101EC00093850400EFF05F9AF32620301735030066
:101ED0001305C51B1306090093850400EFF0DF9876
:101EE0008320C100032481008324410003290100D1
:101EF0001301010167800000130101FF2324810009
:101F000023261100130401019717040083A747300B
:101F10008320C100032481003305F5000325C5019A
:101F20001301010167800000130101FF23248100D8
:101F300023261100130401019717040083A7472DDE
:101F40008320C100032481003305F5000325050229
:101F50001301010167800000130101FF23248100A8
:101F600023261100130401019717040083A7472AB1
:101F70008320C100032481003305F50003254500BB
:101F80001301010167800000130101FF2324810078
:101F900023261100130401019717040083A7472784
:101FA0001307200097360300938646103305F5008B
:101FB00083274500138505006386E7021307300079
:101FC000973603009386060F638EE7001307100011
:101FD000973603009386060D6386E7009736030065
:101FE0009386C60D93050600173603001306860D6B
:101FF000EFF05FA08320C1000324810013010101E1
:1020000067800000130101FF2324810023261100B3
:102010001304010193D7F5419716040083A6461FC8
:1020200093F7F701B387B70093D757403305D5002F
:102030009397270013058500130710003305F5005B
:10204000832705003317B700630E0600B3E7E700E8
:102050002320F5008320C100032481001301010126
:10206000678000001347F7FFB3F7E7002320F50070
:102070008320C10003248100130101016780000057
:10208000130101FF23248100232611001304010101
:1020900093D7F54193F7F701171704000327471764
:1020A000B387B70093D757403305E50093972700D0
:1020B000B307F50003A587008320C1000324810036
:1020C0003355B50013751500130101016780000039
:1020D000638A0512130101FD23248102232E31019D
:1020E0002326110213040103930906006352C01052
:1020F0009717040083A7C711232C4101138A0500F9
:10210000232A510193050000B30AF50013050A00C4
:102110002320210323286101938A8A00EFB04067BE
:1021200013850A009305E001EF704123130BD001E2
:10213000130905006340AB0E23229102232671018F
:10214000232481019304000097EB0300938B4BED54
:102150006F000003EFF01F8A13050C00EFB000477B
:102160009384140013061900B384A4009305E001BE
:1021700013850A00EF70812D130905006346AB0437
:1021800093173900B387FB0003AC470013050C001D
:10219000EFB0C04393071500B387970093060C0078
:1021A00017360300130686F5B385994033059A0068
:1021B000E3F2F9FA975503009385C57117350300CB
:1021C000130585F0EFF04FEA63800404330A9A00A8
:1021D000A30F0AFE8324410203290102032A81017D
:1021E000832A4101032B0101832BC100032C8100B1
:1021F0008320C102032481028329C1011301010349
:10220000678000006780000083244102832BC100A7
:10221000032C81001386090013050A00973503007B
:10222000938505EEEFB0C0448320C10203248102F0
:1022300003290102032A8101832A4101032B0101A1
:102240008329C1011301010367800000130101FF0D
:1022500023248100232611001304010193D7F541A3
:1022600093F7F70117170400032787FAB387B7001E
:1022700093D757403305E50093972700B307F50040
:1022800003A5C7008320C100032481003355B50096
:10229000137515001301010167800000130101FE91
:1022A000232C81002324410123225101232E1100DC
:1022B000232A91002328210123263101130401023E
:1022C000971A0400938ACAF483A70A00130A050028
:1022D00013054004B307FA0083A9C701EF10412A90
:1022E0006308052AB764000013056005EF10412953
:1022F0006304050093E40460739004301305300513
:10230000EF100128630C050083A70A00B307FA0049
:1023100083A74700635EF0027350611083A70A0031
:10232000B307FA0083A747006354F0029307F0FF56
:102330007390673083A70A0013071000B307FA00F1
:1023400083A747006356F700930780FF7390073217
:102350009304300013090002B3D7990093F71700D4
:10236000930500001385043263840702EF30417A3D
:1023700083A70A00B70500C013850472B307FA00EB
:1023800083A7870093F7870063840700EF304178C5
:1023900093841400E39224FD13058004EF10411E82
:1023A000630405007350006083A70A00B307FA00B6
:1023B00003A7870013774700630E070683A68700ED
:1023C000370700CE93F61600638E061C83A687009F
:1023D00093F616006380061EB70600103367D70019
:1023E00083A687001396660063560600B706400072
:1023F0003367D70083A787009396570063D60600FC
:10240000B70780003367F7007350C0307310C731CF
:102410007350D030B70700807390D7317350E030DD
:102420007390E7317350F0307390F73183A70A004F
:10243000B307FA0003A787009316470063DA060282
:1024400013053005EF10C113630A05007350C01067
:102450007350D0107350E0107350F01013058004C7
:10246000EF1001126310051683A70A00B307FA00E4
:1024700003A747009307200063D0E70CF326A030A2
:102480007327A03183A70A00B70500F89385F5FFED
:10249000B307FA0003A687003377B7001376064028
:1024A0006304060093E6060803A687009315460119
:1024B00063D4050093E6060403A68700931546013E
:1024C00063D4050093E6060303A68700137606018E
:1024D00063060600370600803367C70003A687003F
:1024E0009315060163D60500370600103367C70051
:1024F00003A687009315C60063D6050037060020A3
:102500003367C70083A787001396D7006358060078
:10251000B70700E09387F7FF3377F7007390A63093
:102520007310A73183A70A00330AFA0083278A00B1
:1025300093F70708639A070A735040301305300574
:10254000EF100104630405007350001813054004E4
:10255000EF1001036304050AF327003013D7D700F7
:10256000137737006304070A130500008320C101B5
:102570000324810183244101032901018329C1002E
:10258000032A8100832A41001301010267800000B1
:1025900013056004EF00D17EE31605D49304000018
:1025A0006FF09FD483A68700370700C293F616000A
:1025B000E39406E283A6870013961601E35206E22F
:1025C0006FF09FE17350C0607350C0617350D06072
:1025D0007350D0617350E0607350E0617350F060ED
:1025E0007350F0616FF05FE89307002073A0777479
:1025F0009307001073B077746FF01FF41305600435
:10260000EF001178E31A05F46FF01FF61305D0FF01
:102610006FF0DFF5130101FA232C81042328210533
:1026200023263105232E1104232A910413040106C5
:102630001309050093890500735040346392050621
:10264000171804001308C8BC83240800232C04FABC
:10265000232E04FAB304950083C70400232004FC4E
:10266000232204FC232404FC6388070E1305300591
:1026700083244902EF00D170631E05081305090089
:10268000EFF0DFC18320C1050324810583244105C8
:10269000032901058329C104130101066780000095
:1026A00013058004EF00D16D630A050097E7FFFF73
:1026B0009387C72617E70300232CF7A413054002CE
:1026C000EF90C05417180400130888B42320A80002
:1026D000631405006F20502BB304A90083C70400C6
:1026E000232C04FA232E04FA232004FC232204FCC6
:1026F000232404FC6382070613050900EF30003F22
:10270000E31205F81305300583244902EF005167F1
:10271000E30605F6EF50D07083A78404B7B4040035
:102720009369252293F727009384941063940700FC
:102730006F20806C13058004EF009164630805002E
:10274000B707F00093870740B3E4F4007390393083
:10275000739024306FF09FF2130640009305000041
:1027600013858400232604FBEFB080021385C40088
:102770001306400093050000EFB0800197E70300C7
:10278000938707991303C4FC03A6070023A804003A
:1027900023AE040023A20400232604FC232804FC07
:1027A000232A04FC232C04FC232E04FC93060300A0
:1027B0009305000033870600731656307390053A70
:1027C000731056308326C4FC0328C4FA130684FB16
:1027D000638406006F10901183A507009306030021
:1027E0001305F0FF33870600F39555307310053B52
:1027F000739055308326C4FC638406006F10100F5D
:1028000003A50700930603003387060073155530B0
:10281000F325003B731055308326C4FC6384060007
:102820006F10D00C639405006F10500C9396050147
:1028300093D60601638406006F20501493D60501D9
:102840001305000193F8F60F639608001305850041
:1028500093D6860093F8F6006396080013054500AA
:1028600093D6460093F836006396080013052500BA
:1028700093D6260093F6160093B616003305D500BE
:102880001305250023ACA400B706010063E4D500BE
:102890006F20100E939605011305F000B708000194
:1028A00063F61601130585FF93968600B70800109E
:1028B00063F616011305C5FF93964600B70800405E
:1028C00063F616011305E5FF9396260093C6F6FFFF
:1028D00083A8070093D6F6013305D54013051500EC
:1028E00023AAA400232C04FA1385080093060600EB
:1028F0003387060073155530F328003B73105530AD
:10290000832684FB638406006F10407E03A50700C6
:102910009306060033870600731555307390053B08
:1029200073105530832684FB638406006F10007C8F
:10293000F398083BB3F8B8006384B8006F10007BCD
:1029400083A6040103A50700232C04FA938616002E
:1029500023A8D4009306060033870600731555306C
:10296000F328103B73105530832684FB63840600E4
:102970006F10C07703A50700930606003387060093
:10298000731555307390153B73105530832684FBB7
:10299000638406006F108075F398183BB3F8B80095
:1029A0006384B8006F10807483A6040103A5070038
:1029B000232C04FA9386160023A8D400930606005D
:1029C0003387060073155530F328203B73105530BC
:1029D000832684FB638406006F10407103A5070003
:1029E0009306060033870600731555307390253B18
:1029F00073105530832684FB638406006F10006FCC
:102A0000F396283BB3F6B6006384B6006F10006EF1
:102A100083A6040103A50700232C04FA938616005D
:102A200023A8D4009306060033870600731555309B
:102A3000F328303B73105530832684FB63840600F3
:102A40006F10C06A03A50700232C04FA9306060042
:102A500033870600731555307390353B731055302E
:102A6000832684FB638406006F104068F396383B2E
:102A7000B3F6B6006384B6006F10406783A6040106
:102A800003A50700232C04FA9386160023A8D4007C
:102A9000930606003387060073155530F328403B34
:102AA00073105530832684FB638406006F10006426
:102AB00003A50700930606003387060073155530FB
:102AC0007390453B73105530832684FB6384060066
:102AD0006F10C061F396483BB3F6B6006384B6004E
:102AE0006F10C06083A6040103A50700232C04FA1D
:102AF0009386160023A8D4009306060033870600A9
:102B000073155530F328503B73105530832684FBE2
:102B1000638406006F10805D03A50700930606001E
:102B200033870600731555307390553B731055303D
:102B3000832684FB638406006F10405BF396583B4A
:102B4000B3F6B6006384B6006F10405A83A6040142
:102B500003A50700232C04FA9386160023A8D400AB
:102B6000930606003387060073155530F328603B43
:102B700073105530832684FB638406006F10005762
:102B800003A507009306060033870600731555302A
:102B90007390653B73105530832684FB6384060075
:102BA0006F10C054F396683BB3F6B6006384B6006A
:102BB0006F10C05383A6040103A50700232C04FA59
:102BC0009386160023A8D4009306060033870600D8
:102BD00073155530F328703B73105530832684FBF2
:102BE000638406006F10805003A50700930606005B
:102BF00033870600731555307390753B731055304D
:102C0000832684FB638406006F10404EF396783B66
:102C1000B3F6B6006384B6006F10404D83A604017E
:102C200003A50700232C04FA9386160023A8D400DA
:102C3000930606003387060073155530F328803B52
:102C400073105530832684FB638406006F10004A9E
:102C500003A5070093060600338706007315553059
:102C60007390853B73105530832684FB6384060084
:102C70006F10C047F396883BB3F6B6006384B60086
:102C80006F10C04683A6040103A50700232C04FA95
:102C90009386160023A8D400930606003387060007
:102CA00073155530F328903B73105530832684FB01
:102CB000638406006F10804303A507009306060097
:102CC00033870600731555307390953B731055305C
:102CD000832684FB638406006F104041F396983B83
:102CE000B3F6B6006384B6006F10404083A60401BB
:102CF00003A50700232C04FA9386160023A8D4000A
:102D0000930606003387060073155530F328A03B61
:102D100073105530832684FB638406006F10003DDA
:102D200003A5070093060600338706007315553088
:102D30007390A53B73105530832684FB6384060093
:102D40006F10C03AF396A83BB3F6B6006384B600A2
:102D50006F10C03983A6040103A50700232C04FAD1
:102D60009386160023A8D400930606003387060036
:102D700073155530F328B03B73105530832684FB10
:102D8000638406006F10803603A5070093060600D3
:102D900033870600731555307390B53B731055306B
:102DA000832684FB638406006F104034F396B83B9F
:102DB000B3F6B6006384B6006F10403383A60401F7
:102DC00003A50700232C04FA9386160023A8D40039
:102DD000930606003387060073155530F328C03B71
:102DE00073105530832684FB638406006F10003017
:102DF00003A50700930606003387060073155530B8
:102E00007390C53B73105530832684FB63840600A2
:102E10006F10C02DF396C83BB3F6B6006384B600BE
:102E20006F10C02C83A6040103A50700232C04FA0D
:102E30009386160023A8D400930606003387060065
:102E400073155530F328D03B73105530832684FB1F
:102E5000638406006F10802903A50700232C04FA61
:102E60009306060033870600731555307390D53BE3
:102E700073105530832684FB638406006F1000278F
:102E8000F396D83BB3F6B6006384B6006F10002605
:102E900083A6040103A50700232C04FA93861600D9
:102EA00023A8D40093060600338706007315553017
:102EB000F328E03B73105530832684FB63840600BF
:102EC0006F10C02203A50700930606003387060093
:102ED000731555307390E53B73105530832684FB92
:102EE000638406006F108020F396E83BB3F6B600CB
:102EF0006384B6006F10801F83A6040103A507003A
:102F0000232C04FA9386160023A8D4009306060007
:102F10003387060073155530F328F03B7310553096
:102F2000832684FB638406006F10401C03A5070002
:102F30009306060033870600731555307390F53BF2
:102F400073105530832684FB638406006F10001ACB
:102F5000F396F83BB3F6B6006384B6006F10001921
:102F600083A6040103A50700232C04FA9386160008
:102F700023A8D40093060600338706007315553046
:102F8000F328003C73105530832684FB63840600CD
:102F90006F10C01503A507009306060033870600CF
:102FA000731555307390053C73105530832684FBA0
:102FB000638406006F108013F396083CB3F6B600E6
:102FC0006384B6006F10801283A6040103A5070076
:102FD000232C04FA9386160023A8D4009306060037
:102FE0003387060073155530F328103C73105530A5
:102FF000832684FB638406006F10400F03A507003F
:103000009306060033870600731555307390153C00
:1030100073105530832684FB638406006F10000D07
:10302000F396183CB3F6B6006384B6006F10000C3C
:1030300083A6040103A50700232C04FA9386160037
:1030400023A8D40093060600338706007315553075
:10305000F328203C73105530832684FB63840600DC
:103060006F10C00803A5070093060600338706000B
:10307000731555307390253C73105530832684FBAF
:10308000638406006F108006F396283CB3F6B60002
:103090006384B6006F10800583A6040103A50700B2
:1030A000232C04FA9386160023A8D4009306060066
:1030B0003387060073155530F328303C73105530B4
:1030C000832684FB638406006F10400203A507007B
:1030D0009306060033870600731555307390353C10
:1030E00073105530832684FB638406006F10000044
:1030F000F396383CB3F6B600E39AB67E83A6040195
:1031000003A50700232C04FA9386160023A8D400F5
:10311000930606003387060073155530F328403CAC
:1031200073105530832684FBE392067C03A50700C9
:103130009306060033870600731555307390453C9F
:1031400073105530832684FBE392067AF396483C4D
:10315000B3F6B600E39CB67883A6040103A5070086
:10316000232C04FA9386160023A8D40093060600A5
:103170003387060073155530F328503C73105530D3
:10318000832684FBE394067603A5070093060600D6
:1031900033870600731555307390553C73105530C6
:1031A000832684FBE3940674F396583CB3F6B6008A
:1031B000E39EB67283A6040103A50700232C04FA3C
:1031C0009386160023A8D4009306060033870600D2
:1031D00073155530F328603C73105530832684FBFB
:1031E000E396067003A507009306060033870600E2
:1031F000731555307390653C73105530832684FBEE
:10320000E396066EF396683CB3F6B600E390B66EAE
:1032100083A6040103A50700232C04FA9386160055
:1032200023A8D40093060600338706007315553093
:10323000F328703C73105530832684FBE398066AAC
:1032400003A50700232C04FA930606003387060023
:10325000731555307390753C73105530832684FB7D
:10326000E3960668F396783CB3F6B600E390B6684A
:1032700083A6040103A50700232C04FA93861600F5
:1032800023A8D40093060600338706007315553033
:10329000F328803C73105530832684FBE398066442
:1032A00003A5070093060600338706007315553003
:1032B0007390853C73105530832684FBE398066237
:1032C000F396883CB3F6B600E392B66283A6040197
:1032D00003A50700232C04FA9386160023A8D40024
:1032E000930606003387060073155530F328903C8B
:1032F00073105530832684FBE39A065E03A507000E
:103300009306060033870600731555307390953C7D
:1033100073105530832684FBE39A065CF396983C41
:10332000B3F6B600E394B65C83A6040103A50700D8
:10333000232C04FA9386160023A8D40093060600D3
:103340003387060073155530F328A03C73105530B1
:10335000832684FBE39C065803A50700930606001A
:1033600033870600731555307390A53C73105530A4
:10337000832684FBE39C0656F396A83CB3F6B6007E
:10338000E396B65683A6040103A50700232C04FA8E
:103390009386160023A8D400930606003387060000
:1033A00073155530F328B03C73105530832684FBD9
:1033B000E39E065203A50700930606003387060026
:1033C000731555307390B53C73105530832684FBCC
:1033D000E39E0650F396B83CB3F6B600E398B650B9
:1033E00083A6040103A50700232C04FA9386160084
:1033F00023A8D400930606003387060073155530C2
:10340000F328C03C73105530832684FBE390064EAE
:1034100003A5070093060600338706007315553091
:103420007390C53C73105530832684FBE390064CA3
:10343000F396C83CB3F6B600E39AB64A83A60401F5
:1034400003A50700232C04FA9386160023A8D400B2
:10345000930606003387060073155530F328D03CD9
:1034600073105530832684FBE392064803A50700BA
:103470009306060033870600731555307390D53CCC
:1034800073105530832684FBE3920646F396D83CAE
:10349000B3F6B600E39CB64483A6040103A5070077
:1034A000232C04FA9386160023A8D4009306060062
:1034B0003387060073155530F328E03C7310553000
:1034C000832684FBE394064203A5070093060600C7
:1034D00033870600731555307390E53C73105530F3
:1034E000832684FBE3940640F396E83CB3F6B600EB
:1034F000E39EB63E83A6040103A50700232C04FA2D
:103500009386160023A8D40093060600338706008E
:1035100073155530F328F03C73105530832684FB27
:10352000E396063C03A507009306060033870600D2
:10353000731555307390F53C73105530832684FB1A
:10354000E396063AF396F83CB3F6B600E390B63A43
:1035500083A6040103A50700232C04FA9386160012
:1035600023A8D40093060600338706007315553050
:10357000F328003D73105530832684FBE39806360C
:1035800003A5070093060600338706007315553020
:103590007390053D73105530832684FBE398063401
:1035A000F396083DB3F6B600E392B63483A6040161
:1035B00003A50700232C04FA9386160023A8D40041
:1035C000930606003387060073155530F328103D27
:1035D00073105530832684FBE39A063003A5070059
:1035E000232C04FA93060600338706007315553022
:1035F0007390153D73105530832684FBE398062E97
:10360000F396183DB3F6B600E392B62E83A60401F6
:1036100003A50700232C04FA9386160023A8D400E0
:10362000930606003387060073155530F328203DB6
:1036300073105530832684FBE39A062A03A50700FE
:103640009306060033870600731555307390253DA9
:1036500073105530832684FBE39A0628F396283DA1
:10366000B3F6B600E394B62883A6040103A50700C9
:10367000232C04FA9386160023A8D4009306060090
:103680003387060073155530F328303D73105530DD
:10369000832684FBE39C062403A50700930606000B
:1036A00033870600731555307390353D73105530D0
:1036B000832684FBE39C0622F396383DB3F6B600DE
:1036C000E396B62283A6040103A50700232C04FA7F
:1036D0009386160023A8D4009306060033870600BD
:1036E00073155530F328403D73105530832684FB05
:1036F000E39E061E03A50700930606003387060017
:10370000731555307390453D73105530832684FBF7
:10371000E39E061CF396483DB3F6B600E398B61C4C
:1037200083A6040103A50700232C04FA9386160040
:1037300023A8D4009306060033870600731555307E
:10374000F328503D73105530832684FBE390061A0E
:1037500003A507009306060033870600731555304E
:103760007390553D73105530832684FBE390061803
:10377000F396583DB3F6B600E39AB61683A6040155
:1037800003A50700232C04FA9386160023A8D4006F
:10379000930606003387060073155530F328603D05
:1037A00073105530832684FBE392061403A50700AB
:1037B0009306060033870600731555307390653DF8
:1037C00073105530832684FBE3920612F396683D0E
:1037D000B3F6B600E39CB61083A6040103A5070068
:1037E000232C04FA9386160023A8D400930606001F
:1037F0003387060073155530F328703D731055302C
:10380000832684FBE394060E03A5070093060600B7
:1038100033870600731555307390753D731055301E
:10382000832684FBE394060CF396783DB3F6B6004A
:10383000E39EB60A83A6040103A50700232C04FA1D
:103840009386160023A8D40093060600338706004B
:1038500073155530F328803D73105530832684FB53
:10386000E396060803A507009306060033870600C3
:10387000731555307390853D73105530832684FB46
:10388000E3960606F396883DB3F6B600E390B606D7
:1038900083A6040103A50700232C04FA93861600CF
:1038A00023A8D4009306060033870600731555300D
:1038B000F328903D73105530832684FBE39806026D
:1038C00003A50700930606003387060073155530DD
:1038D0007390953D73105530832684FBE398060062
:1038E000F396983DB3F6B600E392B60083A60401C2
:1038F00003A50700232C04FA9386160023A8D400FE
:10390000930606003387060073155530F328A03D53
:1039100073105530832684FB639A067C03A5070049
:103920009306060033870600731555307390A53D46
:1039300073105530832684FB639A067AF396A83D6C
:10394000B3F6B6006394B67A83A6040103A5070014
:10395000232C04FA9386160023A8D40093060600AD
:103960003387060073155530F328B03D731055307A
:10397000832684FB639C067603A50700232C04FAA8
:103980009306060033870600731555307390B53DD6
:1039900073105530832684FB639A0674F396B83D02
:1039A000B3F6B6006394B67483A6040103A50700BA
:1039B000232C04FA9386160023A8D400930606004D
:1039C0003387060073155530F328C03D731055300A
:1039D000832684FB639C067003A5070093060600FC
:1039E00033870600731555307390C53D73105530FD
:1039F000832684FB639C066EF396C83DB3F6B6003F
:103A00006396B66E83A6040103A50700232C04FA6F
:103A10009386160023A8D400930606003387060079
:103A200073155530F328D03D73105530832684FB31
:103A3000639E066A03A50700930606003387060007
:103A4000731555307390D53D73105530832684FB24
:103A5000639E0668F396D83DB3F6B6006398B668E1
:103A600083A6040103A50700232C04FA93861600FD
:103A700023A8D4009306060033870600731555303B
:103A8000F328E03D73105530832684FB639006666F
:103A900003A507009306060033870600731555300B
:103AA0007390E53D73105530832684FB6390066464
:103AB000F396E83DB3F6B600639AB66283A60401B6
:103AC00003A50700232C04FA9386160023A8D4002C
:103AD000930606003387060073155530F328F03D32
:103AE00073105530832684FB6392066003A507009C
:103AF0009306060033870600731555307390F53D25
:103B000073105530832684FB6392065EF396F83D6E
:103B1000B3F6B600639CB65C83A6040103A5070058
:103B2000232C04FA9386160023A8D40093060600DB
:103B30003387060073155530F328003E7310553057
:103B4000832684FB6394065A03A5070093060600A8
:103B500033870600731555307390053E731055304A
:103B6000832684FB63940658F396083EB3F6B600AA
:103B7000639EB65683A6040103A50700232C04FA0E
:103B80009386160023A8D400930606003387060008
:103B900073155530F328103E73105530832684FB7F
:103BA0006396065403A507009306060033870600B4
:103BB000731555307390153E73105530832684FB72
:103BC00063960652F396183EB3F6B6006390B6526B
:103BD00083A6040103A50700232C04FA938616008C
:103BE00023A8D400930606003387060073155530CA
:103BF000F328203E73105530832684FB6398064ECD
:103C000003A5070093060600338706007315553099
:103C10007390253E73105530832684FB6398064CC1
:103C2000F396283EB3F6B6006392B64C83A6040121
:103C300003A50700232C04FA9386160023A8D400BA
:103C4000930606003387060073155530F328303E7F
:103C500073105530832684FB639A064803A507003A
:103C60009306060033870600731555307390353E72
:103C700073105530832684FB639A0646F396383ECC
:103C8000B3F6B6006394B64683A6040103A5070005
:103C9000232C04FA9386160023A8D400930606006A
:103CA0003387060073155530F328403E73105530A6
:103CB000832684FB639C064203A507009306060047
:103CC00033870600731555307390453E7310553099
:103CD000832684FB639C0640F396483EB3F6B60009
:103CE0006396B64083A6040103A50700232C04FABB
:103CF0009386160023A8D400930606003387060097
:103D000073155530F328503E73105530832684FBCD
:103D1000639E063C03A50700232C04FA93060600C5
:103D200033870600731555307390553E7310553028
:103D3000832684FB639C063AF396583EB3F6B6009E
:103D40006396B63A83A6040103A50700232C04FA60
:103D50009386160023A8D400930606003387060036
:103D600073155530F328603E73105530832684FB5D
:103D7000639E063603A507009306060033870600F8
:103D8000731555307390653E73105530832684FB50
:103D9000639E0634F396683EB3F6B6006398B63475
:103DA00083A6040103A50700232C04FA93861600BA
:103DB00023A8D400930606003387060073155530F8
:103DC000F328703E73105530832684FB63900632CF
:103DD00003A50700930606003387060073155530C8
:103DE0007390753E73105530832684FB63900630C4
:103DF000F396783EB3F6B600639AB62E83A6040116
:103E000003A50700232C04FA9386160023A8D400E8
:103E1000930606003387060073155530F328803E5D
:103E200073105530832684FB6392062C03A507008C
:103E30009306060033870600731555307390853E50
:103E400073105530832684FB6392062AF396883ECE
:103E5000B3F6B600639CB62883A6040103A5070049
:103E6000232C04FA9386160023A8D4009306060098
:103E70003387060073155530F328903E7310553084
:103E8000832684FB6394062603A507009306060099
:103E900033870600731555307390953E7310553077
:103EA000832684FB63940624F396983EB3F6B6000B
:103EB000639EB62283A6040103A50700232C04FAFF
:103EC0009386160023A8D4009306060033870600C5
:103ED00073155530F328A03E73105530832684FBAC
:103EE0006396062003A507009306060033870600A5
:103EF000731555307390A53E73105530832684FB9F
:103F00006396061EF396A83EB3F6B6006390B61EFF
:103F100083A6040103A50700232C04FA9386160048
:103F200023A8D40093060600338706007315553086
:103F3000F328B03E73105530832684FB6398061A2D
:103F400003A5070093060600338706007315553056
:103F50007390B53E73105530832684FB6398061822
:103F6000F396B83EB3F6B6006392B61883A6040182
:103F700003A50700232C04FA9386160023A8D40077
:103F8000930606003387060073155530F328C03EAC
:103F900073105530832684FB639A061403A507002B
:103FA0009306060033870600731555307390C53E9F
:103FB00073105530832684FB639A0612F396C83E2D
:103FC000B3F6B6006394B61283A6040103A50700F6
:103FD000232C04FA9386160023A8D4009306060027
:103FE0003387060073155530F328D03E73105530D3
:103FF000832684FB639C060E03A507009306060038
:1040000033870600731555307390D53E73105530C5
:10401000832684FB639C060CF396D83EB3F6B60069
:104020006396B60C83A6040103A50700232C04FAAB
:104030009386160023A8D400930606003387060053
:1040400073155530F328E03E73105530832684FBFA
:10405000639E060803A50700930606003387060043
:10406000731555307390E53E73105530832684FBED
:10407000639E0606F396E83EB3F6B6006398B6066E
:1040800083A6040103A50700232C04FA93861600D7
:1040900023A8D40093060600338706007315553015
:1040A000F328F03E73105530832684FB639006049A
:1040B00003A50700232C04FA9306060033870600A5
:1040C000731555307390F53E73105530832684FB7D
:1040D000639E0600F396F83EB3F6B6006398B6000A
:1040E00083A604019386160023A8D40083A50700A5
:1040F000232C04FA9306060033870600F395553007
:10410000F32830B073905530832684FB6394060205
:1041100083A50700930606001305100033870600E9
:10412000F3955530731035B073905530832684FB6A
:10413000E382065403A50700232604FC232804FC7D
:10414000232A04FC232C04FC232E04FC93060300E6
:104150009305F0FF3387060073155530739035B023
:10416000731055300325C4FC631E050683A80700A1
:104170009306030033870600F3985830F32530B0D8
:10418000739058308326C4FC63900610B706010074
:10419000E3EAD57C938805009306F001370500011A
:1041A00063F6A800938686FF939888003705001071
:1041B00063F6A8009386C6FF939848003705004031
:1041C00063F6A8009386E6FF93982800138EF6FF07
:1041D0001385060063DC0800138E060013851600A5
:1041E0006F00C00013050002130EF00183A8070042
:1041F000232604FC9306030033870600F398583007
:10420000739035B8739058308326C4FC63920602CD
:1042100083A807009306030033870600F3985830FD
:10422000F32530B8739058308326C4FC639E06048F
:10423000370501009306F00163F6A500939505018B
:104240009306F0003705000163F6A500938686FF0C
:10425000939585003705001063F6A5009386C6FF89
:10426000939545003705004063F6A5009386E6FF69
:104270009395250093C5F5FF93D5F501B386B64018
:1042800093052E003385D50083A5070023A0A40243
:10429000232C04FA9306060033870600F395553065
:1042A000F32840B073905530832684FB6394060254
:1042B00083A5070093060600130510003387060048
:1042C000F3955530731045B073905530832684FBB9
:1042D000E38E063A83A50700232C04FA9306060012
:1042E00033870600F3955530F32850B0739055305E
:1042F000832684FB6394060283A5070093060600C9
:104300001305100033870600F3955530731055B030
:1043100073905530832684FBE386066283A50700ED
:10432000232C04FA9306060033870600F3955530D4
:10433000F32860B073905530832684FB63940602A3
:1043400083A50700930606001305100033870600B7
:10435000F3955530731065B073905530832684FB08
:10436000E386065C83A50700232C04FA9306060067
:1043700033870600F3955530F32870B073905530AD
:10438000832684FB6394060283A507009306060038
:104390001305100033870600F3955530731075B080
:1043A00073905530832684FBE386065683A5070069
:1043B000232C04FA9306060033870600F395553044
:1043C000F32880B073905530832684FB63940602F3
:1043D00083A5070093060600130510003387060027
:1043E000F3955530731085B073905530832684FB58
:1043F000E386065083A50700232C04FA93060600E3
:1044000033870600F3955530F32890B073905530FC
:10441000832684FB6394060283A5070093060600A7
:104420001305100033870600F3955530731095B0CF
:1044300073905530832684FBE386064A83A50700E4
:10444000232C04FA9306060033870600F3955530B3
:10445000F328A0B073905530832684FB6394060242
:1044600083A5070093060600130510003387060096
:10447000F39555307310A5B073905530832684FBA7
:10448000E386064483A50700232C04FA930606005E
:1044900033870600F3955530F328B0B0739055304C
:1044A000832684FB6394060283A507009306060017
:1044B0001305100033870600F39555307310B5B01F
:1044C00073905530832684FBE382063E83A5070064
:1044D000232C04FA9306060033870600F395553023
:1044E000F328C0B073905530832684FB6394060292
:1044F00083A5070093060600130510003387060006
:10450000F39555307310C5B073905530832684FBF6
:10451000E380063883A50700232C04FA93060600DF
:1045200033870600F3955530F328D0B0739055309B
:10453000832684FB6394060283A507009306060086
:104540001305100033870600F39555307310D5B06E
:1045500073905530832684FBE38E063083A50700D5
:10456000232C04FA9306060033870600F395553092
:10457000F328E0B073905530832684FB63940602E1
:1045800083A5070093060600130510003387060075
:10459000F39555307310E5B073905530832684FB46
:1045A000E38C062A83A50700232C04FA9306060051
:1045B00033870600F3955530F328F0B073905530EB
:1045C000832684FB6394060283A5070093060600F6
:1045D0001305100033870600F39555307310F5B0BE
:1045E00073905530832684FBE38A062483A5070055
:1045F000232C04FA9306060033870600F395553002
:10460000F32800B173905530832684FB639406022F
:1046100083A50700930606001305100033870600E4
:10462000F3955530731005B173905530832684FB94
:10463000E388061E83A50700232C04FA93060600D0
:1046400033870600F3955530F32810B17390553039
:10465000832684FB6394060283A507009306060065
:104660001305100033870600F3955530731015B10C
:1046700073905530832684FBE386061883A50700D4
:10468000232C04FA9306060033870600F395553071
:10469000F32820B173905530832684FB639406027F
:1046A00083A5070093060600130510003387060054
:1046B000F3955530731025B173905530832684FBE4
:1046C000E384061283A50700232C04FA9306060050
:1046D00033870600F3955530F32830B17390553089
:1046E000832684FB6394060283A5070093060600D5
:1046F0001305100033870600F3955530731035B15C
:1047000073905530832684FBE382060C83A5070053
:10471000232C04FA9306060033870600F3955530E0
:10472000F32840B173905530832684FB63940602CE
:1047300083A50700930606001305100033870600C3
:10474000F3955530731045B173905530832684FB33
:10475000E380060683A50700232C04FA93060600CF
:1047600033870600F3955530F32850B173905530D8
:10477000832684FB6394060283A507009306060044
:104780001305100033870600F3955530731055B1AB
:1047900073905530832684FB638E067E83A50700C5
:1047A000232C04FA9306060033870600F395553050
:1047B000F32860B173905530832684FB639406021E
:1047C00083A5070093060600130510003387060033
:1047D000F3955530731065B173905530832684FB83
:1047E000638C067883A50700232C04FA9306060041
:1047F00033870600F3955530F32870B17390553028
:10480000832684FB6394060283A5070093060600B3
:104810001305100033870600F3955530731075B1FA
:1048200073905530832684FB638A067283A5070044
:10483000232C04FA9306060033870600F3955530BF
:10484000F32880B173905530832684FB639406026D
:1048500083A50700930606001305100033870600A2
:10486000F3955530731085B173905530832684FBD2
:104870006388066C83A50700232C04FA93060600C0
:1048800033870600F3955530F32890B17390553077
:10489000832684FB6394060283A507009306060023
:1048A0001305100033870600F3955530731095B14A
:1048B00073905530832684FB6386066683A50700C4
:1048C000232C04FA9306060033870600F39555302F
:1048D000F328A0B173905530832684FB63940602BD
:1048E00083A5070093060600130510003387060012
:1048F000F39555307310A5B173905530832684FB22
:104900006384066083A50700232C04FA930606003F
:1049100033870600F3955530F328B0B173905530C6
:10492000832684FB6394060283A507009306060092
:104930001305100033870600F39555307310B5B199
:1049400073905530832684FB6382065A83A5070043
:10495000232C04FA9306060033870600F39555309E
:10496000F328C0B173905530832684FB639406020C
:1049700083A5070093060600130510003387060081
:10498000F39555307310C5B173905530832684FB71
:104990006380065483A50700232C04FA93060600BF
:1049A00033870600F3955530F328D0B17390553016
:1049B000832684FB6394060283A507009306060002
:1049C0001305100033870600F39555307310D5B1E9
:1049D00073905530832684FB6382064683A50700C7
:1049E000232C04FA9306060033870600F39555300E
:1049F000F328E0B173905530832684FB639406025C
:104A000083A50700930606001305100033870600F0
:104A1000F39555307310E5B173905530832684FBC0
:104A20006380064083A50700232C04FA9306060042
:104A300033870600F3955530F328F0B17390553065
:104A4000832684FB6394060283A507009306060071
:104A50001305100033870600F39555307310F5B138
:104A600073905530832684FB6388063E83A5070038
:104A7000232C04FA9306060033870600F39555307D
:104A80007325603073905530832684FB639A06004B
:104A900083A6440063C606009306100023A2D40038
:104AA00083A50700232C04FA93060600338706002B
:104AB000F39555307325003273905530832684FB6F
:104AC000639A060083A644006356D0009306200034
:104AD00023A2D40083A50700232C04FA9306060022
:104AE00033870600F39555307325A0307390553009
:104AF000832584FB83A644006394052C9305100052
:104B000063D0D5049306300023A2D40083A5070008
:104B1000232C04FA9306060033870600F3955530DC
:104B2000732500DA73905530832684FB639A062A36
:104B300083A5840083A6440093E5850023A4B400E4
:104B400063C0061283A50700232C04FA930606000F
:104B500033870600F3955530732500FB739055306D
:104B6000832684FB6382062883A6440093052000E5
:104B700063D4D50C83A50700232C04FA9306060002
:104B800033870600F39555307325D0147390553054
:104B9000832684FB638E062683A64400130520002B
:104BA00083A50700635AD508232C04FA9306060050
:104BB00033870600F39555307325C0307390553018
:104BC000832684FB638E062E83A6440013052000F3
:104BD00083A507006352D506232C04FA930606002A
:104BE00033870600F39555307325C0107390553008
:104BF000832684FB638C062A83A6440013052000C9
:104C000083A50700635AD502232C04FA93060600F5
:104C100033870600F3955530732510327390553065
:104C2000832684FB6390062883A5840083A6440022
:104C300093E5051023A4B40063C4060283A507000E
:104C4000232C04FA9306060033870600F3955530AB
:104C50007325007A73905530832684FB638806168B
:104C600083A50700232C04FA930606003387060069
:104C7000F3955530732500C073905530832684FB1F
:104C80006398060083A6C40093E6160023A6D4000A
:104C900083A50700232C04FA930606003387060039
:104CA000F3955530732510C073905530832684FBDF
:104CB0006398060083A6C40093E6260023A6D400CA
:104CC00083A7070093060600232C04FA3387060007
:104CD000F3975730732620C073905730832784FB97
:104CE0006398070083A7C40093E7470023A6F40056
:104CF000F327003483A747026384070283A70706CC
:104D000083A74702638E070013850400232604FB54
:104D1000E78007000328C4FA630405006FD09F965C
:104D20000327080083A784003307E9008326C70010
:104D300093F61600638206028326C70093D61600F8
:104D400093F61600638A06000327C700135727004F
:104D5000137717006314074093F7F7FD03A7C40107
:104D600023A4F4006306070093E7070423A4F400D8
:104D7000930710002380F40083270800B307F9008D
:104D800083A7870093F72700638C0700F3277074CD
:104D900093F71700130560C1638407006FD09F8EDF
:104DA000638409006FD05F951305300583244902A1
:104DB000EFE0007D631405006FD05F8C6FD09F958E
:104DC00093051000E3C4D5D46FF09FD783A6840069
:104DD000B7250000B3E6B60023A4D4006FF05FE867
:104DE00083A644006FF0DFD583A6840093E6160007
:104DF00023A4D4006FF05FD71305800493049010B0
:104E0000EFE00078631405006FD05F946FD05F937C
:104E100083A6840093E6060123A4D4006FF0DFD7B5
:104E2000F398E8B1E390A8C083A6C401B705004099
:104E3000B3E6B60023AED4006FF0DFBEF398D8B16E
:104E4000E39EA8B883A6C401B7050020B3E6B60068
:104E500023AED4006FF09FB8F398F8B1E398A8C0E0
:104E600083A6C401B7050080B3E6B60023AED40024
:104E70006FF0DFBFF39838B0639EA8AA83A6C40181
:104E800093E6860023AED4006FF0CFAAF39848B023
:104E90006392A8C483A6C40193E6060123AED4009E
:104EA0006FF04FC383A644006FF01FD983A6840020
:104EB000B7050008B3E6B60023A4D4006FF0DFD333
:104EC00083A6840093E6460023A4D4006FF0DFCFCE
:104ED000F398C8B1E390A8AC83A6C401B70500104D
:104EE000B3E6B60023AED4006FF0DFAAF398B8B1F2
:104EF000E39EA8A483A6C401B7050008B3E6B600E4
:104F000023AED4006FF09FA4F398A8B1E39CA89EB1
:104F100083A6C401B7050004B3E6B60023AED400EF
:104F20006FF05F9EF39898B1E39AA89883A6C401A6
:104F3000B7050002B3E6B60023AED4006FF01F98A9
:104F4000F39888B1E398A89283A6C401B70500013D
:104F5000B3E6B60023AED4006FF0DF91F39878B1DA
:104F6000E396A88C83A6C401B7058000B3E6B6001B
:104F700023AED4006FF09F8BF39868B1E394A886BA
:104F800083A6C401B7054000B3E6B60023AED40043
:104F90006FF05F85F39858B1E392A88083A6C401AF
:104FA000B7052000B3E6B60023AED4006FF00FFFC4
:104FB000F39848B16390A8FA83A6C401B70510001E
:104FC000B3E6B60023AED4006FF0CFF8F39838B153
:104FD000639EA8F283A6C401B7050800B3E6B60035
:104FE00023AED4006FF08FF2F39828B1639CA8EC45
:104FF00083A6C401B7050400B3E6B60023AED4000F
:105000006FF04FECF39818B1639AA8E683A6C40139
:10501000B7050200B3E6B60023AED4006FF00FE68A
:10502000F39808B16398A8E083A6C401B70501000E
:10503000B3E6B60023AED4006FF0CFDFF398F8B03C
:105040006396A8DA83A6C401B7850000B3E6B6006C
:1050500023AED4006FF08FD9F398E8B06394A8D44E
:1050600083A6C401B7450000B3E6B60023AED40062
:105070006FF04FD3F398D8B06392A8CE83A6C40143
:10508000B7250000B3E6B60023AED4006FF00FCD15
:10509000F398C8B06390A8C883A6C401B7150000F0
:1050A000B3E6B60023AED4006FF0CFC6F398B8B025
:1050B000639EA8C083A6C401B71500009385058030
:1050C000B3E6B60023AED4006FF04FC0F398A8B09B
:1050D000639AA8BA83A6C40193E6064023AED4001F
:1050E0006FF04FBAF39898B0639AA8B483A6C4013E
:1050F00093E6062023AED4006FF04FB4F39888B047
:10510000639AA8AE83A6C40193E6061023AED4002A
:105110006FF04FAEF39878B0639AA8A883A6C40145
:1051200093E6060823AED4006FF04FA8F39868B05A
:10513000639AA8A283A6C40193E6060423AED40012
:105140006FF04FA2F39858B0639AA89C83A6C4014D
:1051500093E6060223AED4006FF04F9C93E707025C
:105160006FF0DFBF939805019306F0006FF00F8397
:10517000938605001305F0016FD04FF2938605006A
:10518000130500006FD00FEC130540C16FD08FCF17
:10519000130101FF232481002326110013040101C0
:1051A00073005010730050106FF09FFF130101FE49
:1051B000232C8100232A910023282101232E110072
:1051C000130401029307100093040600130905005D
:1051D0006386F60493073000638AF6066388060048
:1051E00073005010730050106FF09FFF13055005AF
:1051F0002322E4FE2324D4FE2326B4FEEFE040382D
:105200008325C4FE832684FE032744FE6310050421
:1052100073005010730050106FF09FFF130530059E
:105220002322E4FE2324D4FE2326B4FEEFE04035FF
:105230008325C4FE832684FE032744FE63180500ED
:1052400073005010730050106FF09FFF2320E4FE96
:105250002322B4FEF327003037E6FFFF1306F67F64
:10526000B3F7C7001396B600B3E7C70093F7F7F795
:10527000130580042324D4FE2326F4FEEFE04030FF
:105280008327C4FE832684FE832544FE032704FE71
:10529000630C050073260031131577001376F6F7BB
:1052A0003366A60073100631739007307390143480
:1052B000930710006388F600638206021305090055
:1052C00073002030630E0702739054207350002443
:1052D00073504020735000286FF05FFE1305E00408
:1052E0002326B4FEEFE0C0298325C4FEE30805FCB5
:1052F0007390540073500004735040006FF01FFC13
:105300007390541073500014735040107350001871
:105310006FF0DFFA130101FF23248100232611001F
:105320001304010183274502638C070083A7070646
:1053300083A787056386070013050000E780070041
:1053400013050000EF2081288320C1000324810081
:105350001301010167800000130101FE232C81006D
:10536000232E1100232631011304010297E70300C5
:1053700083A707EAB307F50083A907016350300943
:10538000232A910023282101232441011309050028
:105390009304000017EA0300130A0AE817E7030062
:1053A000034747E793D7544093972700B3874701B4
:1053B000630A070083A70700B3D7970093F7170086
:1053C000639407028327490213850400638A070058
:1053D00083A7070683A7870563840700E780070084
:1053E00013850400EF20811E93841400E39899FA3A
:1053F0008324410103290101032A81008320C10183
:10540000032481018329C100130101026780000088
:10541000130101FD2324810223229102232E310155
:10542000232C41012326110223202103130401030D
:10543000930905001305000093840500130A060074
:10544000EF20014763100512232A5101232861012F
:1054500097EA0300938ACADB83A70A0013090500B1
:1054600013050A00B387F90003AB8701EF00500A68
:105470006372650F83A70A00B387F90083AA8701C7
:105480009306000263EC560593051000B39755018F
:105490003308F0401386F4FF337898003306460152
:1054A000B38707016384DA0263F6F4006374F600DD
:1054B00063780603938A1A00B39755013308F040C6
:1054C00033789800B3870701E390DAFE832A41011D
:1054D000032B01011309F0FF6F0080051308000082
:1054E00083A749026388070283A7070683A74705A6
:1054F000638207029306080013870A001306600000
:105500009305B00113050000232E04FDE78007007A
:105510000328C4FD93860A00130608009305600063
:1055200013050000EF200112832A4101032B010122
:105530008320C10203248102832441028329C10103
:10554000032A810113050900032901021301010344
:105550006780000013050A00EF00807B930A0500B6
:105560006FF01FF2130950C16FF09FFC130101FE91
:10557000232C8100232E110013040102930806003E
:1055800003264600138E060083A608001353260048
:105590006374030163F2F6029385050A170503009D
:1055A000130545C8EFC04FAC8320C101032481011E
:1055B000130101026780000083274502930E070054
:1055C0006384070483A7070683A74705638E070242
:1055D00083A588001387060013050E0093060600B6
:1055E00013860E00232214FF2324D4FF2326C4FF96
:1055F000E7800700832844FE832E84FE032EC4FE2A
:1056000003A6480083A6080093850E0013050E002C
:10561000EF2041038320C101032481011301010212
:1056200067800000130101FC232C8102232A9102D0
:10563000232821032326310323225103232E110281
:1056400013040104F3270034930A050003A587031C
:10565000EF40413F0329450E97E7030083A747BB6F
:1056600083240900B387FA0083A90701638604082D
:105670002324410323206103232E710183A64701C4
:1056800083A7870113071000130A0500938B0700F7
:105690009387F6FFB317F7001387F7FF336BF70015
:1056A000930400001305090063FC3407EF40815B9D
:1056B00083274900930805000328090013D7270012
:1056C00093050A0A170503001305C5B513860700DD
:1056D000637467016374780993060800EFC0CF987C
:1056E0008327C9001309C900E39E07FA032A810230
:1056F000032B0102832BC10163FA340113850400DB
:1057000093841400EF10916CE39A34FF1305300575
:10571000EFD010676310050A130500006F00000248
:1057200017050300130585B6EFC00F94032A810205
:10573000032B0102832BC1011305F0FF8320C1035A
:105740000324810383244103032901038329C10224
:10575000832A4102130101046780000083A54A02E5
:1057600013070800938607001386080013850400BA
:105770006384050283A5050603A34505630E0300A4
:1057800083258900232614FDE700030083274900B1
:10579000032809008328C4FC1385040093850800AE
:1057A0001386070093060800EF10D1699384140054
:1057B0006FF01FF3EF90C05313058004EFD0505CDF
:1057C000E30C05F4EFB04F8F130500006FF01FF7E7
:1057D000130101FD232481022322910223202103AE
:1057E000232E3101232C4101232A51012328610159
:1057F000232611021304010313090500F3270034C3
:1058000003A58703130A1000EF40C12317E7030025
:10581000032707A0930405003307E9008327470106
:1058200083290701032787019387F7FFB317FA003E
:10583000130B07001387F7FFB36AF70073607274E6
:1058400013050000EF10915803A6440E93080000C2
:10585000832706006384071E138A080063940800E8
:10586000130A100063723A178327860013F7770034
:10587000630C070813F787036318070813971700CB
:10588000635207049357FA4193F7F701B38747012F
:1058900017E703000347079893D7574093972700CC
:1058A00097E5030093854597B387B7001375FA0111
:1058B0006308071483A70700B3D7A70093F717005F
:1058C000638C071413050600232EC4FCEF40813EB1
:1058D0000326C4FD93081A001307050013880A0065
:1058E00093070B0093060A00938504001305090033
:1058F000232CC4FC232E14FDEFF05FC7032684FD88
:105900008328C4FD6F00800093081A008327C60017
:105910001306C600E39207F49307100017E703008D
:10592000230AF78E73A0777403A6440E032A060099
:10593000630A0A06130A000093060A0063140A00A9
:105940009306100063F236098327860013050600CC
:10595000138A160013F7770093F787036304070091
:10596000638A0702232CD4FC232EC4FCEF4081342D
:105970000326C4FD832684FD1307050013880A004F
:1059800093070B009385040013050900EFF01FBE79
:105990000326C4FD8327C6001306C600E39E07F84E
:1059A000637A3A0113050A00130A1A00EF10114234
:1059B000E31A3AFF13053005EFD0903C6312050659
:1059C000130500006F004001170503001305058C47
:1059D000EFB09FE91305F0FF8320C1020324810289
:1059E00083244102032901028329C101032A810181
:1059F000832A4101032B0101130101036780000089
:105A000003A7070093051000B395A5003367B700FF
:105A100023A0E7006FF01FEB1305D0FF6FF0DFFB53
:105A2000EF90002D13058004EFD09035E30A05F8C0
:105A3000EFA09FE8130500006FF01FFA97D703004F
:105A4000238A477D73207A7403A6440E032A060036
:105A5000E3120AEEE3683AF56FF0DFF5130101FF98
:105A600023248100232611001304010197D703008A
:105A700083A7077A8320C100032481003305F50042
:105A8000032505011301010167800000130101FFD7
:105A900023248100232611001304010197D703005A
:105AA00083A707778320C100032481003305F50015
:105AB000032585011301010167800000130101FF27
:105AC00023248100232611001304010197D703002A
:105AD00083A707748320C100032481003305F500E8
