:0200000480007A
:100000006F000005732F2034930F80006308FF03F7
:10001000930F90006304FF03930FB0006300FF038E
:10002000130F000063040F0067000F00732F2034CC
:1000300063540F006F00400093E19153172F0000AD
:1000400023223FFC172F000023200FFC6FF01FFF1F
:100050009300000013010000930100001302000050
:100060009302000013030000930300001304000038
:100070009304000013050000930500001306000020
:100080009306000013070000930700001308000008
:10009000930800001309000093090000130A0000F0
:1000A000930A0000130B0000930B0000130C0000D8
:1000B000930C0000130D0000930D0000130E0000C0
:1000C000930E0000130F0000930F0000732540F102
:1000D0006310050097020000938202017390523072
:1000E000735044749702000093820201739052305F
:1000F00073500018970200009382020273905230EE
:10010000B70200809382F2FF7390023B9302F001EA
:100110007390023A7350403097020000938242017C
:100120007390523073502030735030309301000080
:1001300097020000938242ED739052301305100035
:100140001315F501634C05000F00F00F930110002B
:100150009308D0051305000073000000930200000F
:10016000638A020073905210B7B20000938292101B
:100170007390223073500030970200009382420146
:1001800073901234732540F17300203093012000E6
:1001900017310000130101E79300D0FD2300110087
:1001A000030701002300E100030101009303D0FDD8
:1001B000E3127164173100001301C1E4232421000C
:1001C0000322810023001200E316226203070200CB
:1001D000E31277629301300017310000130181E2CE
:1001E0009300D0FCA300110003071100A300E1005D
:1001F000030111009303D0FCE31E715E1731000070
:10020000130141E02324210003228100A3001200F6
:10021000E312225E03071200E31E775C93014000A5
:1002200017310000130101DE9300C0FC230111000F
:10023000030721002301E100030121009303C0FC17
:10024000E31A715A173100001301C1DB2324210086
:100250000322810023011200E31E2258030722001B
:10026000E31A77589301500017310000130181D928
:100270009300C0FBA301110003073100A301E100BB
:10028000030131009303C0FBE316715617310000E0
:10029000130141D72324210003228100A30112006E
:1002A000E31A225403073200E316775493016000E7
:1002B00017310000130101D59300B0FB2302110098
:1002C000030741002302E100030141009303B0FB57
:1002D000E3127152173100001301C1D2232421000F
:1002E0000322810023021200E3162250030742007A
:1002F000E31277509301700017310000130181D091
:100300009300B0FAA302110003075100A302E10019
:10031000030151009303B0FAE31E714C1731000042
:10032000130141CE2324210003228100A3021200E5
:10033000E312224C03075200E31E774A9301800028
:1003400017310000130101CC93003003230011008A
:10035000030701002300E1000301010093033003C0
:10036000E31A7148173100001301C1C92324210089
:100370000322810023001200E31E2246030702002D
:10038000E31A77469301900017310000130181C7EB
:1003900093003002A300110003071100A300E10045
:1003A0000301110093033002E3167144173100007A
:1003B000130141C52324210003228100A300120060
:1003C000E31A224203071200E31677429301A000CA
:1003D00017310000130101C3930020022301110013
:1003E000030721002301E100030121009303200200
:1003F000E3127140173100001301C1C02324210012
:100400000322810023011200E316223E030722008B
:10041000E312773E9301B00017310000130181BE53
:1004200093002001A301110003073100A301E100A3
:100430000301310093032001E31E713A17310000DC
:10044000130141BC2324210003228100A3011200D7
:10045000E312223A03073200E31E77389301C0000B
:1004600017310000130101BA93001001230211009B
:10047000030741002302E10003014100930310013F
:10048000E31A7136173100001301C1B7232421008C
:100490000322810023021200E31E223403074200DC
:1004A000E31A77349301D00017310000130181B5AE
:1004B00093001000A302110003075100A302E10002
:1004C0000301510093031000E3167132173100004D
:1004D000130141B32324210003228100A30212004F
:1004E000E31A223003075200E31677309301E0004D
:1004F00017310000130101B19300300323001100F4
:10050000034701002300E10003410100930330038E
:10051000E312712E173100001301C1AE2324210014
:100520000322810023001200E316222C034702005D
:10053000E312772C9301F00017310000130181AC16
:1005400093003002A300110003471100A300E10053
:100550000341110093033002E31E7128173100009C
:10056000130141AA2324210003228100A3001200C9
:10057000E312222803471200E31E772693010001AD
:1005800017310000130101A893002002230111007C
:10059000034721002301E1000341210093032002CE
:1005A000E31A7124173100001301C1A5232421008F
:1005B0000322810023011200E31E222203472200AE
:1005C000E31A77229301100117310000130181A370
:1005D00093002001A301110003473100A301E100B2
:1005E0000341310093032001E3167120173100000D
:1005F000130141A12324210003228100A301120041
:10060000E31A221E03473200E316771E93012001EE
:10061000173100001301019F930010012302110004
:10062000034741002302E10003414100930310010D
:10063000E312711C173100001301C19C2324210017
:100640000322810023021200E316221A034742000C
:10065000E312771A93013001173100001301819AD8
:1006600093001000A302110003475100A302E10010
:100670000341510093031000E31E7116173100006F
:10068000130141982324210003228100A3021200B8
:10069000E312221603475200E31E77149301400130
:1006A0001731000013010196B7D0BBAA9380D0CDBB
:1006B00023201100032701002320E1000321010072
:1006C000B7D3BBAA9383D3CDE316711217310000C1
:1006D00013014193232421000322810023201200CF
:1006E000E31A221003270200E3167710930150014A
:1006F0001731000013010191B7C0ABDA9380D0CC61
:1007000023221100032741002322E100032141009D
:10071000B7C3ABDA9383D3CCE31E710C173100005F
:100720001301418E23242100032281002322120081
:10073000E312220C03274200E31E770A93016001B3
:10074000173100001301018CB7C0AADD9380C0BC33
:1007500023241100032781002324E10003218100C9
:10076000B7C3AADD9383C3BCE31671081731000039
:100770001301418923242100032281002324120034
:10078000E31A220603278200E3167706930170011D
:100790001731000013010187B7B0DACD9380C0BBD9
:1007A000232611000327C1002326E1000321C100F5
:1007B000B7B3DACD9383C3BBE31E710217310000D8
:1007C00013014184232421000322810023261200E7
:1007D000E31222020327C200E31E77009301800187
:1007E0001731000013010182B7B0DDCC9380B0ABAC
:1007F00023281100032701012328E100032101011F
:10080000B7B3DDCC9383B3AB6316717E17210000C1
:100810001301417F23242100032281002328120099
:10082000631A227C032702016316777C93019001EF
:10083000172100001301017DB7E0CDBC9380B0AA61
:10084000232A110003274101232AE100032141014A
:10085000B7E3CDBC9383B3AA631E71781721000060
:100860001301417A2324210003228100232A12004C
:100870006312227803274201631E77769301A00159
:100880001721000013010178B72011009380302355
:1008900023201100032701002320E1000321010090
:1008A000B72311009383332363167174172100005B
:1008B000130141752324210003228100232012000B
:1008C000631A227203270200631677729301B00144
:1008D0001721000013010173B710013093803022FB
:1008E00023221100032741002322E10003214100BC
:1008F000B713013093833322631E716E17210000FA
:1009000013014170232421000322810023221200BD
:100910006312226E03274200631E776C9301C001AD
:10092000172100001301016EB710003393802012CD
:1009300023241100032781002324E10003218100E7
:10094000B7130033938323126316716A17210000D3
:100950001301416B23242100032281002324120070
:10096000631A226803278200631677689301D00117
:100970001721000013010169B70030239380201173
:10098000232611000327C1002326E1000321C10013
:10099000B703302393832311631E71641721000072
:1009A0001301416623242100032281002326120023
:1009B000631222640327C200631E77629301E00181
:1009C0001721000013010164B70033229380100146
:1009D00023281100032701012328E100032101013D
:1009E000B70333229383130163167160172100004C
:1009F00013014161232421000322810023281200D6
:100A0000631A225E032702016316775E9301F001E9
:100A1000172100001301015FB730231293801000EB
:100A2000232A110003274101232AE1000321410168
:100A3000B733231293831300631E715A17210000EA
:100A40001301415C2324210003228100232A120088
:100A50006312225A03274201631E77589301000252
:100A6000172100001301015AB7D0FFFF9380D0CDAA
:100A700023101100031701002310E10003110100EE
:100A8000B7D3FFFF9383D3CD6316715617210000B0
:100A90001301415723242100032281002310120057
:100AA000631A22540317020063167754930110024D
:100AB0001721000013010155B7C0FFFF9380D0CC70
:100AC00023111100031721002311E100031121005C
:100AD000B7C3FFFF9383D3CC631E7150172100006F
:100AE000130141522324210003228100231112000B
:100AF0006312225003172200631E774E93012002D7
:100B00001721000013010150B7C0FFFF9380C0BC44
:100B100023121100031741002312E10003114100C9
:100B2000B7C3FFFF9383C3BC6316714C172100004A
:100B30001301414D232421000322810023121200BE
:100B4000631A224A031742006316774A9301300260
:100B5000172100001301014BB7B0FFFF9380C0BB0A
:100B600023131100031761002313E1000311610037
:100B7000B7B3FFFF9383C3BB631E71461721000009
:100B80001301414823242100032281002313120072
:100B90006312224603176200631E774493014002EA
:100BA0001721000013010146B7B0FFFF9380B0ABDF
:100BB00023141100031781002314E10003118100A5
:100BC000B7B3FFFF9383B3AB6316714217210000E5
:100BD0001301414323242100032281002314120026
:100BE000631A224003178200631677409301500274
:100BF0001721000013010141B7E0FFFF9380B0AA65
:100C0000231511000317A1002315E1000311A10012
:100C1000B7E3FFFF9383B3AA631E713C1721000063
:100C20001301413E232421000322810023151200D9
:100C30006312223C0317A200631E773A93016002FD
:100C4000172100001301013CB720000093803023DE
:100C500023101100031701002310E100031101000C
:100C6000B7230000938333236316713817210000E4
:100C70001301413923242100032281002310120093
:100C8000631A223603170200631677369301700247
:100C90001721000013010137B710000093803022A4
:100CA00023111100031721002311E100031121007A
:100CB000B713000093833322631E713217210000A3
:100CC0001301413423242100032281002311120047
:100CD0006312223203172200631E773093018002D1
:100CE0001721000013010132B71000009380201279
:100CF00023121100031741002312E10003114100E8
:100D0000B7130000938323126316712E172100007E
:100D10001301412F232421000322810023121200FA
:100D2000631A222C031742006316772C930190025A
:100D3000172100001301012D93002011231311002E
:100D4000031761002313E1000311610093032011D5
:100D50006312712A172100001301C12A23242100E4
:100D60000322810023131200631622280317620056
:100D7000631277289301A002172100001301812834
:100D80009300100123141100031781002314E100C4
:100D90000311810093031001631E712417210000C9
:100DA0001301412623242100032281002314120071
:100DB0006312222403178200631E77229301B0027C
:100DC0001721000013010124B730000093801000A8
:100DD000231511000317A1002315E1000311A10041
:100DE000B7330000938313006316712017210000AE
:100DF0001301412123242100032281002315120025
:100E0000631A221E0317A2006316771E9301C00205
:100E1000172100001301011FB72000009380302329
:100E200023101100035701002310E10003510100BA
:100E3000B723000093833323631E711A1721000028
:100E40001301411C232421000322810023101200DE
:100E50006312221A03570200631E77189301D0020F
:100E6000172100001301011AB710000093803022EF
:100E700023111100035721002311E1000351210028
:100E8000B7130000938333226316711617210000F5
:100E90001301411723242100032281002311120092
:100EA000631A221403572200631677149301E00299
:100EB0001721000013010115B710000093802012C4
:100EC00023121100035741002312E1000351410096
:100ED000B713000093832312631E711017210000C3
:100EE0001301411223242100032281002312120046
:100EF0006312221003574200631E770E9301F00223
:100F00001721000013010110930020112313110079
:100F1000035761002313E100035161009303201183
:100F2000631A710C172100001301C10D2324210045
:100F30000322810023131200631E220A035762005A
:100F4000631A770A93010003172100001301810B34
:100F50009300100123141100035781002314E100B2
:100F600003518100930310016316710817210000DB
:100F700013014109232421000322810023141200BC
:100F8000631A220603578200631677069301100343
:100F90001721000013010107B730000093801000F3
:100FA000231511000357A1002315E1000351A100EF
:100FB000B733000093831300631E710217210000F2
:100FC0001301410423242100032281002315120070
:100FD000631222020357A200631E77001305F00E6E
:100FE0009725000093850502A381A500038635009F
:100FF000631030020F00F00F638001009391110025
:1010000093E111009308D0051385010073000000DF
:101010000F00F00F930110009308D0051305000096
:1010200073000000731000C01300000013000000E4
:0C1030001300000013000000130000007B
:1020000000000000000000000000000000000000D0
:1020100000000000000000000000000000000000C0
:1020200000000000000000000000000000000000B0
:1020300000000000000000000000000000000000A0
:08204000000000000000000098
:10300000EFBEADDEEFBEADDEEFBEADDEEFBEADDEE0
:10301000EFBEADDEEFBEADDEEFBEADDEEFBEADDED0
:10302000EFBEADDEEFBEADDEEFBEADDEEFBEADDEC0
:10303000EFBEADDEEFBEADDEEFBEADDEEFBEADDEB0
:10304000EFBEADDEEFBEADDEEFBEADDEEFBEADDEA0
:040000058000000077
:00000001FF
