:0200000480007A
:100000006F000005732F2034930F80006308FF03F7
:10001000930F90006304FF03930FB0006300FF038E
:10002000130F000063040F0067000F00732F2034CC
:1000300063540F006F00400093E19153171F0000BD
:1000400023223FFC171F000023200FFC6FF01FFF2F
:100050009300000013010000930100001302000050
:100060009302000013030000930300001304000038
:100070009304000013050000930500001306000020
:100080009306000013070000930700001308000008
:10009000930800001309000093090000130A0000F0
:1000A000930A0000130B0000930B0000130C0000D8
:1000B000930C0000130D0000930D0000130E0000C0
:1000C000930E0000130F0000930F0000732540F102
:1000D0006310050097020000938202017390523072
:1000E000735044749702000093820201739052305F
:1000F00073500018970200009382020273905230EE
:10010000B70200809382F2FF7390023B9302F001EA
:100110007390023A7350403097020000938242017C
:100120007390523073502030735030309301000080
:1001300097020000938242ED739052301305100035
:100140001315F501634C05000F00F00F930110002B
:100150009308D0051305000073000000930200000F
:10016000638A020073905210B7B20000938292101B
:100170007390223073500030970200009382420146
:1001800073901234732540F17300203093012000E6
:10019000B70500801306000033D7C500B703008001
:1001A0006318775693013000B705008013061000DE
:1001B00033D7C500B7030040631C77549301400058
:1001C000B70500801306700033D7C500B7030001E0
:1001D0006310775493015000B70500801306E000C8
:1001E00033D7C500B7030200631477529301600050
:1001F000B7050080938515001306F00133D7C500BD
:100200009303100063167750930170009305F0FF7D
:100210001306000033D7C5009303F0FF631A774E2F
:10022000930180009305F0FF1306100033D7C5003B
:10023000B70300809383F3FF631C774C9301900016
:100240009305F0FF1306700033D7C500B703000213
:100250009383F3FF631E774A9301A0009305F0FF99
:100260001306E00033D7C500B70304009383F3FF00
:100270006310774A9301B0009305F0FF1306F00175
:1002800033D7C50093031000631477489301C0006F
:10029000B7252121938515121306000033D7C50019
:1002A000B723212193831312631477469301D0005F
:1002B000B7252121938515121306100033D7C500E9
:1002C000B793901093830309631477449301E0007C
:1002D000B7252121938515121306700033D7C50069
:1002E000B743420093832324631477429301F000C1
:1002F000B7252121938515121306E00033D7C500D9
:10030000B78300009383434863147740930100014F
:10031000B7252121938515121306F00133D7C500A7
:10032000930300006316773E93011001B725212146
:1003300093851512130600FC33D7C500B72321217E
:10034000938313126316773C93012001B725212173
:1003500093851512130610FC33D7C500B793901080
:10036000938303096316773A93013001B72521215E
:1003700093851512130670FC33D7C500B7434200AE
:10038000938323246316773893014001B7252121F5
:10039000938515121306E0FC33D7C500B783000020
:1003A000938343486316773693015001B725212183
:1003B000938515121306F0FF33D7C5009303000091
:1003C0006318773493016001B7050080130670004D
:1003D000B3D5C500B7030001639C7532930170016A
:1003E000B70500801306E00033D6C500B70302004E
:1003F000631076329301800193057000B3D5B50088
:10040000930300006396753093019001130200007E
:10041000B70000801301700033D7200013030700DA
:100420001302120093022000E31452FEB7030001EE
:100430006310732E9301A00113020000B700008027
:100440001301E00033D7200013000000130307005E
:100450001302120093022000E31252FEB7030200BF
:100460006318732A9301B00113020000B7000080E3
:100470001301F00133D72000130000001300000027
:10048000130307001302120093022000E31052FE30
:1004900093031000631E73269301C0011302000032
:1004A000B70000801301700033D720001302120040
:1004B00093022000E31652FEB7030001631A77246B
:1004C0009301D00113020000B70000801301E00087
:1004D0001300000033D72000130212009302200003
:1004E000E31452FEB7030200631477229301E00184
:1004F00013020000B70000801301F0011300000098
:100500001300000033D720001302120093022000D2
:10051000E31252FE93031000631C771E9301F00157
:1005200013020000B70000801300000013017000E8
:1005300033D720001302120093022000E31452FE6E
:10054000B70300016316771C930100021302000039
:10055000B7000080130000001301E000130000004A
:1005600033D720001302120093022000E31252FE40
:10057000B7030200631E77189301100213020000F4
:10058000B700008013000000130000001301F00109
:1005900033D720001302120093022000E31252FE10
:1005A00093031000631677169301200213020000D4
:1005B00013017000B700008033D72000130212002F
:1005C00093022000E31652FEB70300016312771472
:1005D00093013002130200001301E000B700008015
:1005E0001300000033D720001302120093022000F2
:1005F000E31452FEB7030200631C7710930140021C
:10060000130200001301F001B70000801300000086
:100610001300000033D720001302120093022000C1
:10062000E31252FE930310006314770E93015002FD
:10063000130200001301700013000000B7000080D7
:1006400033D720001302120093022000E31452FE5D
:10065000B7030001631E770A9301600213020000D2
:100660001301E00013000000B70000801300000039
:1006700033D720001302120093022000E31252FE2F
:10068000B70302006316770893017002130200009B
:100690001301F0011300000013000000B7000080F8
:1006A00033D720001302120093022000E31252FEFF
:1006B00093031000631E7704930180029300F000FF
:1006C00033511000930300006314710493019002EE
:1006D0009300000233D1000093030002631A7102F9
:1006E0009301A002B35000009303000063927002D4
:1006F0009301B00293000040371100001301018004
:1007000033D02000930300006314700063103002A4
:100710000F00F00F638001009391110093E111002D
:100720009308D00513850100730000000F00F00F3F
:10073000930110009308D00513050000730000001A
:10074000731000C01300000013000000130000002D
:10075000130000001300000013000000130000004D
:10076000130000001300000013000000130000003D
:0C07700013000000130000001300000044
:1010000000000000000000000000000000000000E0
:1010100000000000000000000000000000000000D0
:1010200000000000000000000000000000000000C0
:1010300000000000000000000000000000000000B0
:081040000000000000000000A8
:040000058000000077
:00000001FF
