:0200000480007A
:100000006F004005732F2034930F8000630AFF03B5
:10001000930F90006306FF03930FB0006302FF038A
:10002000170F0000130F0F2263040F0067000F006B
:10003000732F203463540F006F00400093E19153FD
:10004000171F000023203FFC171F0000232E0FFA6C
:100050006FF01FFF930000001301000093010000E8
:10006000130200009302000013030000930300003A
:100070001304000093040000130500009305000022
:10008000130600009306000013070000930700000A
:1000900013080000930800001309000093090000F2
:1000A000130A0000930A0000130B0000930B0000DA
:1000B000130C0000930C0000130D0000930D0000C2
:1000C000130E0000930E0000130F0000930F0000AA
:1000D000732540F16310050097020000938202012E
:1000E000739052307350447497020000938202015F
:1000F00073905230735000189702000093820202EE
:1001000073905230B70200809382F2FF7390023BEB
:100110009302F0017390023A73504030970200004E
:1001200093824201739052307350203073503030BC
:100130009301000097020000938202ED7390523009
:10014000130510001315F501634C05000F00F00FA7
:10015000930110009308D005130500007300000000
:1001600093020000638A020073905210B7B200003D
:100170009382921073902230735000303725000024
:100180001305058073200530970200009382420119
:1001900073901234732540F17300203093012000D6
:1001A00017210000130101E6B710000093804023DF
:1001B00097070000938747012310110003170100E0
:1001C0006F00800013870000B71300009383432360
:1001D000631077049301300017210000130181E2BE
:1001E000B75000009380806797070000938747010E
:1001F000A3101100031711006F0080001387000087
:10020000B753000093838367631477006310300251
:100210000F00F00F638001009391110093E1110032
:100220009308D00513850100730000000F00F00F44
:10023000930110009308D00513050000730000001F
:100240009302600073232034E39462FC73901734AC
:1002500073002030731000C0130000001300000072
:100260001300000013000000130000001300000042
:100270001300000013000000130000001300000032
:1010000000000000000000000000000000000000E0
:1010100000000000000000000000000000000000D0
:1010200000000000000000000000000000000000C0
:1010300000000000000000000000000000000000B0
:081040000000000000000000A8
:1020000000000000000000000000000000000000D0
:040000058000000077
:00000001FF
