:0200000480007A
:100000006F004005732F2034930F8000630AFF03B5
:10001000930F90006306FF03930FB0006302FF038A
:10002000170F0000130F0F2963040F0067000F0064
:10003000732F203463540F006F00400093E19153FD
:10004000171F000023203FFC171F0000232E0FFA6C
:100050006FF01FFF930000001301000093010000E8
:10006000130200009302000013030000930300003A
:100070001304000093040000130500009305000022
:10008000130600009306000013070000930700000A
:1000900013080000930800001309000093090000F2
:1000A000130A0000930A0000130B0000930B0000DA
:1000B000130C0000930C0000130D0000930D0000C2
:1000C000130E0000930E0000130F0000930F0000AA
:1000D000732540F16310050097020000938202012E
:1000E000739052307350447497020000938202015F
:1000F00073905230735000189702000093820202EE
:1001000073905230B70200809382F2FF7390023BEB
:100110009302F0017390023A73504030970200004E
:1001200093824201739052307350203073503030BC
:100130009301000097020000938202ED7390523009
:10014000130510001315F501634C05000F00F00FA7
:10015000930110009308D005130500007300000000
:1001600093020000638A020073905210B7B200003D
:100170009382921073902230735000303725000024
:100180001305058073200530970200009382420119
:1001900073901234732540F17300203093011000E6
:1001A0007310003A9302F0FF7390023BF322003B7E
:1001B00033035040B3F862006384080C93D81800EE
:1001C000638E080C73600C3A73B0083B93015000C7
:1001D000F32F003BB3FF1F0163940F0A73A0083B8A
:1001E00093017000F32F003BB3FF1F01638A0F08D8
:1001F00073700C3A93019000F32F003BB3FF1F0183
:1002000063900F0873600C3A9301B000F32F003B2A
:10021000B3FF1F0163860F0673B0083B73700C3A7F
:1002200073A0083B73600C3A93010001F32F003B6D
:10023000B3FF1F0163860F0473700C3A7330003BE9
:100240007320003B73600C3A93013001F32F003BA5
:10025000B3FF1F0163860F0273700C3A93C2F8FF5D
:1002600073A0023B73600C3A93016001F32F003BD3
:10027000B3FF1F0163960F006F004002631030024E
:100280000F00F00F638001009391110093E11100C2
:100290009308D00513850100730000000F00F00FD4
:1002A000930110009308D0051305000073000000AF
:1002B0006FF01FFD731000C013000000130000005A
:1010000000000000000000000000000000000000E0
:1010100000000000000000000000000000000000D0
:1010200000000000000000000000000000000000C0
:1010300000000000000000000000000000000000B0
:081040000000000000000000A8
:040000058000000077
:00000001FF
