:0200000480007A
:100000006F000005732F2034930F80006308FF03F7
:10001000930F90006304FF03930FB0006300FF038E
:10002000130F000063040F0067000F00732F2034CC
:1000300063540F006F00400093E19153171F0000BD
:1000400023223FFC171F000023200FFC6FF01FFF2F
:100050009300000013010000930100001302000050
:100060009302000013030000930300001304000038
:100070009304000013050000930500001306000020
:100080009306000013070000930700001308000008
:10009000930800001309000093090000130A0000F0
:1000A000930A0000130B0000930B0000130C0000D8
:1000B000930C0000130D0000930D0000130E0000C0
:1000C000930E0000130F0000930F0000732540F102
:1000D0006310050097020000938202017390523072
:1000E000735044749702000093820201739052305F
:1000F00073500018970200009382020273905230EE
:10010000B70200809382F2FF7390023B9302F001EA
:100110007390023A7350403097020000938242017C
:100120007390523073502030735030309301000080
:1001300097020000938242ED739052301305100035
:100140001315F501634C05000F00F00F930110002B
:100150009308D0051305000073000000930200000F
:10016000638A020073905210B7B20000938292101B
:100170007390223073500030970200009382420146
:1001800073901234732540F17300203093012000E6
:1001900093050000130600003397C5029303000087
:1001A000631A774A9301300093051000130610007C
:1001B0003397C50293030000631E77489301400004
:1001C00093053000130670003397C50293030000B7
:1001D0006312774893015000930500003786FFFFB4
:1001E0003397C502930300006316774693016000BE
:1001F000B7050080130600003397C5029303000083
:10020000631A774493017000B7050080130600005D
:100210003397C50293030000631E77429301E00108
:10022000B7B5AAAA9385B5AA370603001306D6E781
:100230003397C502B703FFFF93831308631C77400E
:100240009301F001B70503009385D5E737B6AAAA55
:100250001306B6AA3397C502B703FFFF93831308AB
:10026000631A773E93010002B70500FF370600FFCF
:100270003397C502B7030100631E773C9301100258
:100280009305F0FF1306F0FF3397C50293030000B8
:100290006312773C930120029305F0FF13061000D0
:1002A0003397C5029303F0FF6316773A9301300248
:1002B000930510001306F0FF3397C5029303F0FF78
:1002C000631A773893018000B705D0003706B00075
:1002D000B395C502B7930000938303F0639C753612
:1002E00093019000B705E0003706B0003396C502D1
:1002F000B7A30000938303A0631E76349301A0008C
:10030000B705D000B395B502B7B30000938303904F
:10031000639275349301B00013020000B700D0005F
:100320003701B000339720021303070013021200B5
:1003300093022000E31452FEB7930000938303F06E
:10034000631A73309301C00013020000B700E0008D
:100350003701B00033972002130000001303070099
:100360001302120093022000E31252FEB7A3000012
:10037000938303A06310732E9301D0001302000037
:10038000B700F0003701B0003397200213000000DF
:100390001300000013030700130212009302200051
:1003A000E31052FEB7A30000938303506314732A33
:1003B0009301E00013020000B700D0003701B00045
:1003C000339720021302120093022000E31652FE1C
:1003D000B7930000938303F0631E77269301F00028
:1003E00013020000B700E0003701B0001300000066
:1003F000339720021302120093022000E31452FEEE
:10040000B7A30000938303A0631677249301000130
:1004100013020000B700F0003701B0001300000025
:1004200013000000339720021302120093022000F1
:10043000E31252FEB7A3000093830350631C77209E
:100440009301100113020000B700D0001300000058
:100450003701B000339720021302120093022000EC
:10046000E31452FEB7930000938303F06314771EE6
:100470009301200113020000B700E0001300000008
:100480003701B0001300000033972002130212005E
:1004900093022000E31252FEB7A30000938303A04F
:1004A000631A771A9301300113020000B700F000BD
:1004B00013000000130000003701B0003397200242
:1004C0001302120093022000E31252FEB7A30000B1
:1004D00093830350631077189301400113020000C7
:1004E0003701B000B700D00033972002130212008A
:1004F00093022000E31652FEB7930000938303F0AB
:10050000631A771493015001130200003701B00001
:10051000B700E0001300000033972002130212001E
:1005200093022000E31452FEB7A30000938303A0BC
:100530006312771293016001130200003701B000CB
:10054000B700F000130000001300000033972002F2
:100550001302120093022000E31252FEB7A3000020
:10056000938303506318770E930170011302000008
:100570003701B00013000000B700D000339720020D
:100580001302120093022000E31452FEB7930000FE
:10059000938303F06310770C930180011302000032
:1005A0003701B00013000000B700E00013000000A6
:1005B000339720021302120093022000E31252FE2E
:1005C000B7A30000938303A06316770893019001FB
:1005D000130200003701B0001300000013000000F8
:1005E000B700F0003397200213021200930220009C
:1005F000E31252FEB7A3000093830350631C7704F9
:100600009301A001B700007C331110029303000096
:10061000631271049301B001B700008033910002AE
:1006200093030000631871029301C001B31000022C
:1006300093030000639070029301D001B700100291
:1006400037012002339020029303000063147000EE
:10065000631030020F00F00F6380010093911100CE
:1006600093E111009308D005138501007300000089
:100670000F00F00F930110009308D0051305000040
:1006800073000000731000C013000000130000008E
:10069000130000001300000013000000130000000E
:1006A00013000000130000001300000013000000FE
:0C06B00013000000130000001300000005
:1010000000000000000000000000000000000000E0
:1010100000000000000000000000000000000000D0
:1010200000000000000000000000000000000000C0
:1010300000000000000000000000000000000000B0
:081040000000000000000000A8
:040000058000000077
:00000001FF
