:0200000480007A
:100000006F000005732F2034930F80006308FF03F7
:10001000930F90006304FF03930FB0006300FF038E
:10002000130F000063040F0067000F00732F2034CC
:1000300063540F006F00400093E19153171F0000BD
:1000400023223FFC171F000023200FFC6FF01FFF2F
:100050009300000013010000930100001302000050
:100060009302000013030000930300001304000038
:100070009304000013050000930500001306000020
:100080009306000013070000930700001308000008
:10009000930800001309000093090000130A0000F0
:1000A000930A0000130B0000930B0000130C0000D8
:1000B000930C0000130D0000930D0000130E0000C0
:1000C000930E0000130F0000930F0000732540F102
:1000D0006310050097020000938202017390523072
:1000E000735044749702000093820201739052305F
:1000F00073500018970200009382020273905230EE
:10010000B70200809382F2FF7390023B9302F001EA
:100110007390023A7350403097020000938242017C
:100120007390523073502030735030309301000080
:1001300097020000938242ED739052301305100035
:100140001315F501634C05000F00F00F930110002B
:100150009308D0051305000073000000930200000F
:10016000638A020073905210B7B20000938292101B
:100170007390223073500030970200009382420146
:1001800073901234732540F17300203093012000E6
:10019000B707FF009387F70F17210000130181E6CF
:1001A00003270100B703FF009383F30F6316772A39
:1001B00093013000B70701FF938707F01721000074
:1001C000130141E403274100B70301FF938303F0C8
:1001D0006314772893014000B717F00F938707FF48
:1001E00017210000130101E203278100B713F00F6C
:1001F000938303FF6312772693015000B7F70FF044
:100200009387F700172100001301C1DF0327C10006
:10021000B7F30FF09383F30063107724930160002A
:10022000B707FF009387F70F17210000130141DE86
:10023000032741FFB703FF009383F30F631E77206B
:1002400093017000B70701FF938707F017210000A3
:10025000130101DC032781FFB70301FF938303F040
:10026000631C771E93018000B717F00F938707FF79
:10027000172100001301C1D90327C1FFB713F00FE5
:10028000938303FF631A771C93019000B7F70FF075
:100290009387F70017210000130181D7032701007E
:1002A000B7F30FF09383F3006318771A9301A0005C
:1002B00097200000938000D5938000FE83A2000267
:1002C000B703FF009383F30F639872189301B00094
:1002D00097200000938000D39380D0FF83A270000A
:1002E000B70301FF938303F0639872169301C00074
:1002F0001302000097260000938606D103A746004C
:1003000013030700B713F00F938303FF63167314EF
:100310001302120093022000E31E52FC9301D0004E
:100320001302000097260000938646CE03A74600DE
:100330001300000013030700B7F30FF09383F300DB
:10034000631C73101302120093022000E31C52FC82
:100350009301E0001302000097260000938686CAEE
:1003600003A746001300000013000000130307005A
:10037000B70301FF938303F06310730E130212009F
:1003800093022000E31A52FC9301F00013020000D4
:1003900097260000938646C703A74600B713F00FC1
:1003A000938303FF631A770A13021200930220005B
:1003B000E31052FE93010001130200009726000093
:1003C0009386C6C41300000003A74600B7F30FF0DE
:1003D0009383F30063127708130212009302200044
:1003E000E31E52FC93011001130200009726000047
:1003F000938646C1130000001300000003A74600C7
:10040000B70301FF938303F063187704130212000C
:1004100093022000E31C52FC93012001972200006C
:10042000938242BE03A10200130120009303200027
:10043000631471029301300197220000938282BC01
:1004400003A1020013000000130120009303200009
:1004500063147100631030020F00F00F638001001D
:100460009391110093E111009308D00513850100C9
:10047000730000000F00F00F930110009308D005E7
:100480001305000073000000731000C0130000008B
:100490001300000013000000130000001300000010
:1004A0001300000013000000130000001300000000
:0C04B00013000000130000001300000007
:1010000000000000000000000000000000000000E0
:1010100000000000000000000000000000000000D0
:1010200000000000000000000000000000000000C0
:1010300000000000000000000000000000000000B0
:081040000000000000000000A8
:10200000FF00FF0000FF00FFF00FF00F0FF00FF0D8
:040000058000000077
:00000001FF
