:0200000480007A
:100000006F00C0006F2040346F2000349300000068
:10001000130100009301000013020000930200008E
:100020001303000093030000130400009304000076
:10003000130500009305000013060000930600005E
:100040001307000093070000130800009308000046
:100050001309000093090000130A0000930A00002E
:10006000130B0000930B0000130C0000930C000016
:10007000130D0000930D0000130E0000930E0000FE
:10008000130F0000930F00009702000093820201FB
:10009000739052307350447497020000938202F7B9
:1000A0007390523017C100001301C1ECF32240F1EC
:1000B0009392C2003301510073100134EF20D0132A
:1000C000173500001305C5946F204074832245083E
:1000D0007390121483204500032185008321C500FD
:1000E0000322050183224501032385018323C501E2
:1000F00003240502832445028325C5020326050344
:1001000083264503032785038327C50303280504A6
:1001100083284504032985048329C504032A05058A
:10012000832A4505032B8505832BC505032C05066E
:10013000832C4506032D8506832DC506032E050752
:10014000832E4507032F8507832FC50703258502C7
:100150007300201073110114232211002326310093
:1001600023284100232A5100232C6100232E7100F3
:1001700023208102232291022324A1022326B102FB
:100180002328C102232AD102232CE102232EF102CB
:1001900023200105232211052324210523263105CF
:1001A00023284105232A5105232C6105232E71059F
:1001B00023208107232291072324A1072326B107A7
:1001C0002328C107232AD107232CE107232EF10777
:1001D000F312011423245100F322001023205108AC
:1001E000F322101423225108F3223014232451083F
:1001F000F322201423265108130501006F20C03E6E
:1010000000000000000000000000000000000000E0
:1010100000000000000000000000000000000000D0
:1010200000000000000000000000000000000000C0
:1010300000000000000000000000000000000000B0
:081040000000000000000000A8
:10200000B3E7C500B367F50093F73700B306C50023
:10201000638407023386C50093070500637ED502FB
:1020200003C705009385150093871700A38FE7FE6C
:10203000E318B6FE67800000E37ED5FE9307050037
:1020400003A70500938747009385450023AEE7FE6D
:10205000E3E8D7FE6780000067800000B367C50033
:1020600093F73700130805003307C500638807029C
:10207000637AE504130101FE93F5F50F232E110099
:102080002326A100EFF09FFD0328C1008320C1019A
:102090001305080013010102678000006374E50264
:1020A00093F5F50F93968500B386B60093970601D6
:1020B000B386F600930705009387470023AED7FE4B
:1020C000E3ECE7FE13050800678000008347050086
:1020D000638E07009307050003C717009387170057
:1020E000E31C07FE3385A74067800000130500004E
:1020F00067800000130705008347070083C60500BB
:1021000013071700938515003385D74063860700B2
:10211000E384D7FE6780000067800000B367B500E6
:1021200093F73700639E07021378C6FF3308050153
:1021300063780503930705006F000001938747004C
:102140009385450063F8070183A6070003A70500F0
:10215000E386E6FE3385A7403306A64013850700D5
:102160003386C5006F0040018347F5FF03C70500B4
:1021700093851500639AE70013051500E396C5FEE5
:1021800013050000678000003385E740678000008A
:102190009307050003C70500938515009387170073
:1021A000A38FE7FEE31807FE6780000003470500E2
:1021B00093060002930705006318D70003C71700B2
:1021C00093871700E30CD7FE930657FD93F6D60FBF
:1021D0006394060483C61700130737FD13361700F0
:1021E0006386060493871700130500009387170082
:1021F000938506FD1317250083C607003307A70044
:10220000131717003385E500E39206FE630406000A
:102210003305A0406780000083C607001306000056
:10222000E39406FC1305000067800000130500001E
:102230006FF0DFFD83470500638C070A130101FB84
:10224000130EC10013030101930E0000930300005D
:1022500017F6FFFF130606DB97F6FFFF938686DE71
:10226000130F0004930F00001308100093080000E0
:102270002326F1002328E101232AF101232C010167
:10228000232E11012320C1032322D1032324010380
:102290002326110303270600832746001305150094
:1022A0003367F700630207021307000023A0E6006C
:1022B0009307000023A2F6000327060083274600A9
:1022C0003367F700E31207FE23206600232276001F
:1022D00003A7060083A746003367F700E30A07FE5B
:1022E00083470500E39607F81301010567800000A6
:1022F0006780000097F6FFFF9386C6D003A706000D
:1023000083A74600130805009358F5413367F7008B
:102310006306070217F6FFFF1306C6D21307000075
:102320002320E600930700002322F60003A70600FF
:1023300083A746003367F700E31207FE23A00601D8
:1023400023A216016F000000130101FF1305903452
:1023500023261100EFF01FFA130101FD13070500FA
:10236000232611021305C1001306B10113089000C2
:102370006F0080001306F6FF9376F700B337D8009E
:10238000B307F04093F7770293870703B386F6000D
:10239000135747009397C5012300D6003387E70002
:1023A00093D54500E318C5FC230E0100EFF09FE82C
:1023B0008320C1021301010367800000130101FDA6
:1023C0009307100013070580232EF1002326110226
:1023D000232C010013070780B7E70300637AF71A7D
:1023E000B7F6FFFFB377D50013D8C700130708402F
:1023F00093162700974800009388C8C0B386D8007A
:1024000083A60600639206129766000083A6C6BFE5
:10241000232481026380061C03A646009765000002
:1024200083A545BE176500002320C5BE630CB61406
:10243000138507001306C1019305810103A406005B
:102440002326E100232401012322F1002320D100CF
:10245000EF00405B832601008327410003288100B1
:102460000327C100974800009388C8B9631C050E74
:102470001356C4001316A6001366F6019315270021
:10248000B385B8001365060C23A0A500738007125E
:1024900097350000938505B713183800B3850501FB
:1024A00003A50500631E051003A8060037050400F8
:1024B00023A0050183A6460023A2D500732805109A
:1024C000B706C0FFB386D700371500003385A600D6
:1024D0009385070003A3860083AE060003AE460083
:1024E00023A4650023A0D50123A2C50103A3C60030
:1024F000938606019385050123AE65FEE39CA6FC49
:1025000073100810131727003387E8002320C70033
:10251000738007120F100000032481028320C10280
:10252000130101036780000013F606046308060424
:1025300013D676001376160063180606938515FFEA
:1025400093E6060863920506131727003387E80011
:102550002320D700738007128320C10213010103D7
:102560006780000003A60600832581011356C6007C
:102570001316A6003366B6006FF05FF093E606040C
:102580006FF09FFC17660000232E06A66FF05FEA2F
:10259000171500001305053023248102EFF09FC9B1
:1025A00013053000EFF01FD5171500001305453354
:1025B00023248102EFF01FC813053000EFF09FD3F2
:1025C000171500001305C537EFF0DFC613053000FF
:1025D000EFF05FD21715000013050535EFF09FC52A
:1025E00013053000EFF01FD1130101FE232C8100F1
:1025F000232E110013040500EF004040631005086E
:102600008325C408930780006380F50A93072000A0
:10261000638AF502938745FF93B727006396070007
:10262000938715FF6396070603258408EFF01FD9EB
:1026300013050400032481018320C1011301010259
:102640006FD0DFA88327440813F7370063100718FB
:1026500003A70700EF0780007310300083A707006F
:10266000232A91006302F702171500001305C539EC
:10267000EFF05FBC13053000EFF0DFC71305040077
:10268000EFD0DFA46FF0DFF713051000EFF09FC667
:10269000171500001305053A232A9100EFF09FB9A2
:1026A00013053000EFF01FC58327840237140000A4
:1026B000232A910093080400938407001738000030
:1026C0001308489437F303009357C4001397370057
:1026D000B306E80083A60600638A060C93870740CA
:1026E000974600009386069293972700B387F600DB
:1026F00083A7070093F607046386060E2326F100DE
:102700002322E100B7070400F3A60710B707C0FFB4
:10271000B305F40013050400371600002320D10090
:102720002324B100EFF09F9F83260100032741007F
:10273000173800001308088DB7180000176E000046
:10274000130E4E8C37F30300630405048327C10086
:102750008325810093F707086380070A9307040025
:102760003306140103A5870003AF070083AE4700BB
:1027700023A4A50023A0E50123A2D50103A5C7003A
:10278000938707019385050123AEA5FEE39CC7FC53
:102790003307E8007390061083270E0023200700FC
:1027A000638E070023A2E7002320EE003304140108
:1027B000E31C64F013850400EFF0DFB32320EE0088
:1027C0009767000023A2E7846FF05FFE17150000F3
:1027D00013054521232A9100EFF0DFA513053000F2
:1027E000EFF05FB11715000013054519EFF09FA436
:1027F00013053000EFF01FB0171500001305451B3F
:10280000EFF05FA313053000EFF0DFAEF32740F1E8
:10281000639A0716130101F6232C8108130405009F
:10282000174500001305057E1357C50097350000B6
:102830009385457D1317A70037060020232E110826
:102840001306F60C1367170093D6C500B707008070
:1028500023A0E500232EC5FE33E7F600731007180A
:10286000F32600186310D718738007121307F001BE
:102870009387F7FF9702000093824201F392523050
:102880007390073B7310073A7390523097E7BF7FFE
:102890009387878C73905710F32700343707C07FD6
:1028A000B387E70073900714B7B70000938707104A
:1028B00073902730B7E70100938707607390073064
:1028C000735040309737C07F938747931757000066
:1028D000232CF7729737C07F938747B117570000B3
:1028E0002322F77237030800B708C07F1303F303EE
:1028F000938888001737000013074790173E0000A1
:10290000130E4EAF93079003930500009396F501C5
:1029100013D617003386C600B346F600B3876700A8
:102920009397C70033081701939656002320F700AA
:1029300093F60602232207011307870093D515009B
:10294000B367D600E314EEFC13050100130600097B
:10295000930500009737000023AC07A8EFF00FF0B5
:10296000B70700803304F400130501002322810817
:10297000EFD0CFF58320C109032481091301010A97
:1029800067800000B7278601370608009387F79411
:102990001306C6FF13070000370800803705004004
:1029A0006F00C0022FA006009315F70193D6170001
:1029B000B386D500B3C7D7009397E701B3F7A70055
:1029C0001357170033E7E70093870600B3F6C700F5
:1029D00093F51700B3860601E39605FC03A00600F5
:1029E0006FF09FFC1715000013058507EFF09F841B
:1029F00013053000EFF01F90678000001305000002
:102A0000678000001305000067800000930120002C
:102A1000171100001301015F9300D0FD2300110086
:102A2000030701002300E100030101009303D0FD2F
:102A3000E3127164171100001301C15C232421000B
:102A40000322810023001200E31622620307020022
:102A5000E312776293013000171100001301815ACD
:102A60009300D0FCA300110003071100A300E100B4
:102A7000030111009303D0FCE31E715E17110000E7
:102A8000130141582324210003228100A3001200D6
:102A9000E312225E03071200E31E775C93014000FD
:102AA00017110000130101569300C0FC230111000F
:102AB000030721002301E100030121009303C0FC6F
:102AC000E31A715A171100001301C1532324210086
:102AD0000322810023011200E31E22580307220073
:102AE000E31A775893015000171100001301815128
:102AF0009300C0FBA301110003073100A301E10013
:102B0000030131009303C0FBE31671561711000057
:102B10001301414F2324210003228100A30112004D
:102B2000E31A225403073200E3167754930160003E
:102B3000171100001301014D9300B0FB2302110097
:102B4000030741002302E100030141009303B0FBAE
:102B5000E3127152171100001301C14A232421000E
:102B60000322810023021200E316225003074200D1
:102B7000E312775093017000171100001301814890
:102B80009300B0FAA302110003075100A302E10071
:102B9000030151009303B0FAE31E714C17110000BA
:102BA000130141462324210003228100A3021200C5
:102BB000E312224C03075200E31E774A9301800080
:102BC000171100001301014493003003230011008A
:102BD000030701002300E100030101009303300318
:102BE000E31A7148171100001301C1412324210089
:102BF0000322810023001200E31E22460307020085
:102C0000E31A774693019000171100001301813FEA
:102C100093003002A300110003071100A300E1009C
:102C20000301110093033002E316714417110000F1
:102C30001301413D2324210003228100A30012003F
:102C4000E31A224203071200E31677429301A00021
:102C5000171100001301013B930020022301110012
:102C6000030721002301E100030121009303200257
:102C7000E3127140171100001301C1382324210011
:102C80000322810023011200E316223E03072200E3
:102C9000E312773E9301B000171100001301813653
:102CA00093002001A301110003073100A301E100FB
:102CB0000301310093032001E31E713A1711000054
:102CC000130141342324210003228100A3011200B7
:102CD000E312223A03073200E31E77389301C00063
:102CE000171100001301013293001001230211009B
:102CF000030741002302E100030141009303100197
:102D0000E31A7136171100001301C12F232421008B
:102D10000322810023021200E31E22340307420033
:102D2000E31A77349301D000171100001301812DAD
:102D300093001000A302110003075100A302E10059
:102D40000301510093031000E316713217110000C4
:102D50001301412B2324210003228100A30212002E
:102D6000E31A223003075200E31677309301E000A4
:102D700017110000130101299300300323001100F3
:102D8000034701002300E1000341010093033003E6
:102D9000E312712E171100001301C1262324210014
:102DA0000322810023001200E316222C03470200B5
:102DB000E312772C9301F000171100001301812416
:102DC00093003002A300110003471100A300E100AB
:102DD0000341110093033002E31E71281711000014
:102DE000130141222324210003228100A3001200A9
:102DF000E312222803471200E31E77269301000105
:102E0000171100001301012093002002230111007B
:102E1000034721002301E100034121009303200225
:102E2000E31A7124171100001301C11D232421008E
:102E30000322810023011200E31E22220347220005
:102E4000E31A772293011001171100001301811B6F
:102E500093002001A301110003473100A301E10009
:102E60000341310093032001E31671201711000084
:102E7000130141192324210003228100A301120020
:102E8000E31A221E03473200E316771E9301200146
:102E90001711000013010117930010012302110004
:102EA000034741002302E100034141009303100165
:102EB000E312711C171100001301C1142324210017
:102EC0000322810023021200E316221A0347420064
:102ED000E312771A930130011711000013018112D8
:102EE00093001000A302110003475100A302E10068
:102EF0000341510093031000E31E711617110000E7
:102F0000130141102324210003228100A302120097
:102F1000E312221603475200E31E77149301400187
:102F2000171100001301010EB7D0BBAA9380D0CDBA
:102F300023201100032701002320E10003210100C9
:102F4000B7D3BBAA9383D3CDE31671121711000038
:102F50001301410B232421000322810023201200AE
:102F6000E31A221003270200E316771093015001A1
:102F70001711000013010109B7C0ABDA9380D0CC60
:102F800023221100032741002322E10003214100F5
:102F9000B7C3ABDA9383D3CCE31E710C17110000D7
:102FA0001301410623242100032281002322120061
:102FB000E312220C03274200E31E770A930160010B
:102FC0001711000013010104B7C0AADD9380C0BC33
:102FD00023241100032781002324E1000321810021
:102FE000B7C3AADD9383C3BCE316710817110000B1
:102FF0001301410123242100032281002324120014
:10300000E31A220603278200E31677069301700174
:1030100017110000130101FFB7B0DACD9380C0BBD8
:10302000232611000327C1002326E1000321C1004C
:10303000B7B3DACD9383C3BBE31E7102171100004F
:10304000130141FC232421000322810023261200C6
:10305000E31222020327C200E31E770093018001DE
:1030600017110000130101FAB7B0DDCC9380B0ABAB
:1030700023281100032701012328E1000321010176
:10308000B7B3DDCC9383B3AB6316717E1711000029
:10309000130141F723242100032281002328120079
:1030A000631A227C032702016316777C9301900147
:1030B00017110000130101F5B7E0CDBC9380B0AA51
:1030C000232A110003274101232AE10003214101A2
:1030D000B7E3CDBC9383B3AA631E717817110000C8
:1030E000130141F22324210003228100232A12002C
:1030F0006312227803274201631E77769301A001B1
:1031000017110000130101F0B72011009380302344
:1031100023201100032701002320E10003210100E7
:10312000B7231100938333236316717417110000C2
:10313000130141ED232421000322810023201200EA
:10314000631A227203270200631677729301B0019B
:1031500017110000130101EBB710013093803022EA
:1031600023221100032741002322E1000321410013
:10317000B713013093833322631E716E1711000061
:10318000130141E82324210003228100232212009D
:103190006312226E03274200631E776C9301C00105
:1031A00017110000130101E6B710003393802012BD
:1031B00023241100032781002324E100032181003F
:1031C000B7130033938323126316716A171100003B
:1031D000130141E323242100032281002324120050
:1031E000631A226803278200631677689301D0016F
:1031F00017110000130101E1B70030239380201163
:10320000232611000327C1002326E1000321C1006A
:10321000B703302393832311631E716417110000D9
:10322000130141DE23242100032281002326120002
:10323000631222640327C200631E77629301E001D8
:1032400017110000130101DCB70033229380100135
:1032500023281100032701012328E1000321010194
:10326000B7033322938313016316716017110000B3
:10327000130141D9232421000322810023281200B5
:10328000631A225E032702016316775E9301F00141
:1032900017110000130101D7B730231293801000DB
:1032A000232A110003274101232AE10003214101C0
:1032B000B733231293831300631E715A1711000052
:1032C000130141D42324210003228100232A120068
:1032D0006312225A03274201631E775893010002AA
:1032E00017110000130101D2B7D0FFFF9380D0CD9A
:1032F00023101100031701002310E1000311010046
:10330000B7D3FFFF9383D3CD631671561711000017
:10331000130141CF23242100032281002310120036
:10332000631A2254031702006316775493011002A4
:1033300017110000130101CDB7C0FFFF9380D0CC5F
:1033400023111100031721002311E10003112100B3
:10335000B7C3FFFF9383D3CC631E715017110000D6
:10336000130141CA232421000322810023111200EA
:103370006312225003172200631E774E930120022E
:1033800017110000130101C8B7C0FFFF9380C0BC34
:1033900023121100031741002312E1000311410021
:1033A000B7C3FFFF9383C3BC6316714C17110000B2
:1033B000130141C52324210003228100231212009E
:1033C000631A224A031742006316774A93013002B8
:1033D00017110000130101C3B7B0FFFF9380C0BBFA
:1033E00023131100031761002313E100031161008F
:1033F000B7B3FFFF9383C3BB631E71461711000071
:10340000130141C023242100032281002313120051
:103410006312224603176200631E77449301400241
:1034200017110000130101BEB7B0FFFF9380B0ABCE
:1034300023141100031781002314E10003118100FC
:10344000B7B3FFFF9383B3AB63167142171100004C
:10345000130141BB23242100032281002314120005
:10346000631A2240031782006316774093015002CB
:1034700017110000130101B9B7E0FFFF9380B0AA54
:10348000231511000317A1002315E1000311A1006A
:10349000B7E3FFFF9383B3AA631E713C17110000CB
:1034A000130141B6232421000322810023151200B9
:1034B0006312223C0317A200631E773A9301600255
:1034C00017110000130101B4B720000093803023CE
:1034D00023101100031701002310E1000311010064
:1034E000B72300009383332363167138171100004C
:1034F000130141B123242100032281002310120073
:10350000631A22360317020063167736930170029E
:1035100017110000130101AFB71000009380302293
:1035200023111100031721002311E10003112100D1
:10353000B713000093833322631E7132171100000A
:10354000130141AC23242100032281002311120026
:103550006312223203172200631E77309301800228
:1035600017110000130101AAB71000009380201268
:1035700023121100031741002312E100031141003F
:10358000B7130000938323126316712E17110000E6
:10359000130141A7232421000322810023121200DA
:1035A000631A222C031742006316772C93019002B2
:1035B00017110000130101A593002011231311001E
:1035C000031761002313E10003116100930320112D
:1035D0006312712A171100001301C1A223242100D4
:1035E00003228100231312006316222803176200AE
:1035F000631277289301A00217110000130181A024
:103600009300100123141100031781002314E1001B
:103610000311810093031001631E71241711000030
:103620001301419E23242100032281002314120050
:103630006312222403178200631E77229301B002D3
:10364000171100001301019CB73000009380100097
:10365000231511000317A1002315E1000311A10098
:10366000B733000093831300631671201711000015
:103670001301419923242100032281002315120004
:10368000631A221E0317A2006316771E9301C0025D
:103690001711000013010197B72000009380302319
:1036A00023101100035701002310E1000351010012
:1036B000B723000093833323631E711A1711000090
:1036C00013014194232421000322810023101200BE
:1036D0006312221A03570200631E77189301D00267
:1036E0001711000013010192B710000093803022DF
:1036F00023111100035721002311E1000351210080
:10370000B71300009383332263167116171100005C
:103710001301418F23242100032281002311120071
:10372000631A221403572200631677149301E002F0
:10373000171100001301018DB710000093802012B3
:1037400023121100035741002312E10003514100ED
:10375000B713000093832312631E7110171100002A
:103760001301418A23242100032281002312120025
:103770006312221003574200631E770E9301F0027A
:103780001711000013010188930020112313110069
:10379000035761002313E1000351610093032011DB
:1037A000631A710C171100001301C1852324210035
:1037B0000322810023131200631E220A03576200B2
:1037C000631A770A93010003171100001301818324
:1037D0009300100123141100035781002314E1000A
:1037E0000351810093031001631671081711000043
:1037F000130141812324210003228100231412009C
:10380000631A22060357820063167706930110039A
:10381000170100001301017FB730000093801000F2
:10382000231511000357A1002315E1000351A10046
:10383000B733000093831300631E71021701000069
:103840001301417C2324210003228100231512004F
:10385000631222020357A200631E77001305F00EC5
:10386000970500009385057AA381A500038635009E
:10387000631A3000139511006300050013651500ED
:10388000730000001305100073000000731000C0E7
:10389000417373657274696F6E206661696C6564EB
:1038A0003A2061646472203E3D202831554C203C12
:1038B0003C203132292026262061646472203C207D
:1038C000282831203C3C2036292D3129202A202847
:1038D00031554C203C3C203132290A00417373653C
:1038E0007274696F6E206661696C65643A20212884
:1038F00070745B315D5B616464722F2831554C20BC
:103900003C3C203132295D20262030783038302967
:10391000202626206361757365203D3D2030786642
:103920000A000000417373657274696F6E206661EE
:10393000696C65643A206E6F64650A004173736553
:103940007274696F6E206661696C65643A20757384
:1039500065725F6D617070696E675B616464722F20
:103960002831554C203C3C203132295D2E61646465
:1039700072203D3D20300A00417373657274696F97
:103980006E206661696C65643A2070745B315D5BC2
:10399000616464722F2831554C203C3C203132291F
:1039A0005D20262030783034300A00004173736582
:1039B0007274696F6E206661696C65643A20707418
:1039C0005B315D5B616464722F2831554C203C3C57
:1039D000203132295D20262030783038300A00002E
:1039E000417373657274696F6E206661696C65649A
:1039F0003A2074662D3E65706320252034203D3DBD
:103A000020300A00417373657274696F6E206661BD
:103A1000696C65643A202122696C6C6567616C2071
:103A2000696E737472756374696F6E220A000000A8
:103A3000417373657274696F6E206661696C656449
:103A40003A202122756E657870656374656420651F
:103A50007863657074696F6E220A00004173736544
:103A60007274696F6E206661696C65643A20212208
:103A7000756E737570706F727465642073617470A5
:083A8000206D6F6465220A004D
:10400000EFBEADDEEFBEADDEEFBEADDEEFBEADDED0
:10401000EFBEADDEEFBEADDEEFBEADDEEFBEADDEC0
:10402000EFBEADDEEFBEADDEEFBEADDEEFBEADDEB0
:10403000EFBEADDEEFBEADDEEFBEADDEEFBEADDEA0
:10404000EFBEADDEEFBEADDEEFBEADDEEFBEADDE90
:040000058000000077
:00000001FF
