:0200000480007A
:100000006F000005732F2034930F80006308FF03F7
:10001000930F90006304FF03930FB0006300FF038E
:10002000130F000063040F0067000F00732F2034CC
:1000300063540F006F00400093E19153171F0000BD
:1000400023223FFC171F000023200FFC6FF01FFF2F
:100050009300000013010000930100001302000050
:100060009302000013030000930300001304000038
:100070009304000013050000930500001306000020
:100080009306000013070000930700001308000008
:10009000930800001309000093090000130A0000F0
:1000A000930A0000130B0000930B0000130C0000D8
:1000B000930C0000130D0000930D0000130E0000C0
:1000C000930E0000130F0000930F0000732540F102
:1000D0006310050097020000938202017390523072
:1000E000735044749702000093820201739052305F
:1000F00073500018970200009382020273905230EE
:10010000B70200809382F2FF7390023B9302F001EA
:100110007390023A7350403097020000938242017C
:100120007390523073502030735030309301000080
:1001300097020000938242ED739052301305100035
:100140001315F501634C05000F00F00F930110002B
:100150009308D0051305000073000000930200000F
:10016000638A020073905210B7B20000938292101B
:100170007390223073500030970200009382420146
:1001800073901234732540F17300203093012000E6
:1001900017210000130101E79300A00A9707000050
:1001A0009387470123101100031701006F0080009F
:1001B000138700009303A00A6316774C9301300065
:1001C00017210000130101E4B7B0FFFF938000A0E6
:1001D000970700009387470123111100031721009F
:1001E0006F00800013870000B7B3FFFF938303A065
:1001F000631A77489301400017210000130181E042
:10020000B710EFBE938000AA9707000093874701BD
:1002100023121100032741006F00800013870000A4
:10022000B713EFBE938303AA631E77449301500074
:1002300017210000130101DDB7A0FFFF9380A0008C
:1002400097070000938747012313110003176100EC
:100250006F00800013870000B7A3FFFF9383A30004
:10026000631277429301600017210000130161DAE5
:100270009300A00A9707000093874701231D11FEF2
:100280000317A1FF6F008000138700009303A00AEB
:10029000631A773E9301700017210000130161D7A4
:1002A000B7B0FFFF938000A0970700009387470136
:1002B000231E11FE0317C1FF6F008000138700008B
:1002C000B7B3FFFF938303A0631E773A93018000C7
:1002D000172100001301E1D3B7100000938000AA9A
:1002E0009707000093874701231F11FE0317E1FFC3
:1002F0006F00800013870000B7130000938303AAE8
:10030000631277389301900017210000130161D028
:10031000B7A0FFFF9380A0009707000093874701D5
:1003200023101100031701006F00800013870000E5
:10033000B7A3FFFF9383A300631677349301A00054
:1003400097200000938000CD37513412130181674C
:10035000138200FE2310220283920000B753000094
:1003600093838367639072329301B00097200000FB
:10037000938040CA37310000130181099380B0FF98
:10038000A3932000172200001302E2C88312020088
:10039000B7330000938383096396722E9301C000E4
:1003A00013020000B7D6FFFF9386D6CD17260000B4
:1003B000130646C52310D60003170600B7D3FFFF68
:1003C0009383D3CD6310772C130212009302200085
:1003D000E31A52FC9301D00013020000B7C6FFFFDE
:1003E0009386D6CC172600001306C6C11300000062
:1003F0002311D60003172600B7C3FFFF9383D3CC86
:10040000631277281302120093022000E31852FCB3
:100410009301E00013020000B7C6FFFF9386C6BC3D
:1004200017260000130606BE13000000130000008C
:100430002312D60003174600B7C3FFFF9383C3BC44
:10044000631277241302120093022000E31652FC79
:100450009301F00013020000B7B6FFFF9386C6BBFE
:1004600013000000172600001306C6B92313D60098
:1004700003176600B7B3FFFF9383C3BB63147720F2
:100480001302120093022000E31852FC93010001B2
:1004900013020000B7B6FFFF9386B6AB130000004F
:1004A00017260000130606B6130000002314D6001A
:1004B00003178600B7B3FFFF9383B3AB6314771CB6
:1004C0001302120093022000E31652FC9301100164
:1004D00013020000B7E6FFFF9386B6AA13000000E0
:1004E00013000000172600001306C6B12315D6001E
:1004F0000317A600B7E3FFFF9383B3AA631477182B
:100500001302120093022000E31652FC9301200113
:1005100013020000172100001301C1AEB720000034
:10052000938030232310110003170100B72300002C
:10053000938333236318771413021200930220006D
:10054000E31A52FC9301300113020000172100004E
:10055000130141ABB710000093803022130000005C
:100560002311110003172100B713000093833322D6
:10057000631A77101302120093022000E31852FC52
:10058000930140011302000017210000130181A70D
:10059000B710000093802012130000001300000029
:1005A0002312110003174100B71300009383231295
:1005B000631A770C1302120093022000E31652FC18
:1005C000930150011302000017210000130181A3C1
:1005D0001300000093002011231311000317610082
:1005E000930320116310770A130212009302200074
:1005F000E31C52FC9301600113020000172100006C
:10060000130141A01300000093001001130000002B
:10061000231411000317810093031001631477065C
:100620001302120093022000E31A52FC930170019E
:1006300013020000172100001301C19C13000000E9
:1006400013000000B7300000938010002315110044
:100650000317A100B73300009383130063147702DC
:100660001302120093022000E31652FC37C500006B
:100670001305F5EE972500009385C5982393A500F3
:10068000631030020F00F00F63800100939111009E
:1006900093E111009308D005138501007300000059
:1006A0000F00F00F930110009308D0051305000010
:0C06B00073000000731000C01300000075
:1010000000000000000000000000000000000000E0
:1010100000000000000000000000000000000000D0
:1010200000000000000000000000000000000000C0
:1010300000000000000000000000000000000000B0
:081040000000000000000000A8
:10200000EFBEEFBEEFBEEFBEEFBEEFBEEFBEEFBE68
:10201000EFBEEFBE00000000000000000000000066
:040000058000000077
:00000001FF
