:0200000480007A
:100000006F000005732F2034930F80006308FF03F7
:10001000930F90006304FF03930FB0006300FF038E
:10002000130F000063040F0067000F00732F2034CC
:1000300063540F006F00400093E19153171F0000BD
:1000400023223FFC171F000023200FFC6FF01FFF2F
:100050009300000013010000930100001302000050
:100060009302000013030000930300001304000038
:100070009304000013050000930500001306000020
:100080009306000013070000930700001308000008
:10009000930800001309000093090000130A0000F0
:1000A000930A0000130B0000930B0000130C0000D8
:1000B000930C0000130D0000930D0000130E0000C0
:1000C000930E0000130F0000930F0000732540F102
:1000D0006310050097020000938202017390523072
:1000E000735044749702000093820201739052305F
:1000F00073500018970200009382020273905230EE
:10010000B70200809382F2FF7390023B9302F001EA
:100110007390023A7350403097020000938242017C
:100120007390523073502030735030309301000080
:1001300097020000938242ED739052301305100035
:100140001315F501634C05000F00F00F930110002B
:100150009308D0051305000073000000930200000F
:10016000638A020073905210B7B20000938292101B
:100170007390223073500030970200009382420146
:1001800073901234732540F17300203093012000E6
:10019000B706008013D70600B703008063187728DE
:1001A00093013000B706008013D71600B703004054
:1001B000631E772693014000B706008013D77600B0
:1001C000B70300016314772693015000B70600803F
:1001D00013D7E600B7030200631A77249301600087
:1001E000B70600809386160013D7F601930310001C
:1001F000631E7722930170009306F0FF13D7060069
:100200009303F0FF63147722930180009306F0FFBD
:1002100013D71600B70300809383F3FF631877208A
:10022000930190009306F0FF13D77600B703000206
:100230009383F3FF631C771E9301A0009306F0FFE6
:1002400013D7E600B70304009383F3FF6310771E10
:100250009301B0009306F0FF13D7F601930310004B
:100260006316771C9301C000B726212193861612CE
:1002700013D70600B7232121938313126318771A2B
:100280009301D000B72621219386161213D71600AA
:10029000B793901093830309631A77189301E000D2
:1002A000B72621219386161213D77600B743420052
:1002B00093832324631C77169301F000B726212132
:1002C0009386161213D7E600B78300009383434842
:1002D000631E771493010001B7262121938616121D
:1002E00013D7F601930300006312771493011001F2
:1002F000B705008093D57500B703000163987512A8
:100300009301200113020000B700008013D7700092
:10031000130307001302120093022000E31652FE9B
:10032000B70300016314731093013001130200003E
:10033000B700008013D7E00013000000130307008C
:100340001302120093022000E31452FEB7030200CE
:10035000631E730C9301400113020000B70000807C
:100360009380100013D7F001130000001300000069
:10037000130307001302120093022000E31052FE41
:10038000930310006314730A9301500113020000D9
:10039000B700008013D770001302120093022000F0
:1003A000E31852FEB703000163127708930160015E
:1003B00013020000B70000801300000013D7E00014
:1003C0001302120093022000E31652FEB70302004C
:1003D000631E77049301700113020000B7000080D0
:1003E00093801000130000001300000013D7F001E9
:1003F0001302120093022000E31252FE9303100036
:10040000631677029301800193504000930300002C
:10041000639E7000930190019300100213D0A0001E
:100420009303000063147000631030020F00F00F9C
:10043000638001009391110093E111009308D005AE
:1004400013850100730000000F00F00F93011000EE
:100450009308D0051305000073000000731000C05E
:100460001300000013000000130000001300000040
:0C04700013000000130000001300000047
:1010000000000000000000000000000000000000E0
:1010100000000000000000000000000000000000D0
:1010200000000000000000000000000000000000C0
:1010300000000000000000000000000000000000B0
:081040000000000000000000A8
:040000058000000077
:00000001FF
