:0200000480007A
:100000006F000005732F2034930F80006308FF03F7
:10001000930F90006304FF03930FB0006300FF038E
:10002000130F000063040F0067000F00732F2034CC
:1000300063540F006F00400093E19153171F0000BD
:1000400023223FFC171F000023200FFC6FF01FFF2F
:100050009300000013010000930100001302000050
:100060009302000013030000930300001304000038
:100070009304000013050000930500001306000020
:100080009306000013070000930700001308000008
:10009000930800001309000093090000130A0000F0
:1000A000930A0000130B0000930B0000130C0000D8
:1000B000930C0000130D0000930D0000130E0000C0
:1000C000930E0000130F0000930F0000732540F102
:1000D0006310050097020000938202017390523072
:1000E000735044749702000093820201739052305F
:1000F00073500018970200009382020273905230EE
:10010000B70200809382F2FF7390023B9302F001EA
:100110007390023A7350403097020000938242017C
:100120007390523073502030735030309301000080
:1001300097020000938242ED739052301305100035
:100140001315F501634C05000F00F00F930110002B
:100150009308D0051305000073000000930200000F
:10016000638A020073905210B7B20000938292101B
:100170007390223073500030970200009382420146
:1001800073901234732540F17300203093012000E6
:10019000930540011306600033D7C5029303300076
:1001A0006316770C930130009305C0FE13066000C0
:1001B00033D7C502B7B3AA2A938373AA6318770A01
:1001C00093014000930540011306A0FF33D7C502F9
:1001D00093030000631C7708930150009305C0FE51
:1001E0001306A0FF33D7C5029303000063107708FE
:1001F00093016000B70500801306100033D7C502D5
:10020000B70300806314770693017000B705008080
:100210001306F0FF33D7C502930300006318770479
:1002200093018000B70500801306000033D7C50294
:100230009303F0FF631C7702930190009305100075
:100240001306000033D7C5029303F0FF6310770253
:100250009301A000930500001306000033D7C502E8
:100260009303F0FF63147700631030020F00F00F68
:10027000638001009391110093E111009308D00570
:1002800013850100730000000F00F00F93011000B0
:100290009308D0051305000073000000731000C020
:1002A0001300000013000000130000001300000002
:0C02B00013000000130000001300000009
:1010000000000000000000000000000000000000E0
:1010100000000000000000000000000000000000D0
:1010200000000000000000000000000000000000C0
:1010300000000000000000000000000000000000B0
:081040000000000000000000A8
:040000058000000077
:00000001FF
