:0200000480007A
:100000006F000005732F2034930F80006308FF03F7
:10001000930F90006304FF03930FB0006300FF038E
:10002000130F000063040F0067000F00732F2034CC
:1000300063540F006F00400093E19153171F0000BD
:1000400023223FFC171F000023200FFC6FF01FFF2F
:100050009300000013010000930100001302000050
:100060009302000013030000930300001304000038
:100070009304000013050000930500001306000020
:100080009306000013070000930700001308000008
:10009000930800001309000093090000130A0000F0
:1000A000930A0000130B0000930B0000130C0000D8
:1000B000930C0000130D0000930D0000130E0000C0
:1000C000930E0000130F0000930F0000732540F102
:1000D0006310050097020000938202017390523072
:1000E000735044749702000093820201739052305F
:1000F00073500018970200009382020273905230EE
:10010000B70200809382F2FF7390023B9302F001EA
:100110007390023A7350403097020000938242017C
:100120007390523073502030735030309301000080
:1001300097020000938242ED739052301305100035
:100140001315F501634C05000F00F00F930110002B
:100150009308D0051305000073000000930200000F
:10016000638A020073905210B7B20000938292101B
:100170007390223073500030970200009382420146
:1001800073901234732540F17300203093012000E6
:1001900093050000130600003387C5409303000059
:1001A0006316774A93013000930510001306100080
:1001B0003387C54093030000631A774893014000DA
:1001C00093053000130670003387C5409303C0FFCA
:1001D000631E774693015000930500003786FFFFAA
:1001E0003387C540B78300006312774693016000F0
:1001F000B7050080130600003387C540B7030080B1
:100200006316774493017000B70500803786FFFFBF
:100210003387C540B7830080631A7742930180001B
:1002200093050000378600001306F6FF3387C540AC
:10023000B783FFFF93831300631A77409301900005
:10024000B70500809385F5FF130600003387C5408E
:10025000B70300809383F3FF631A773E9301A000F6
:10026000B70500809385F5FF378600001306F6FF7B
:100270003387C540B783FF7F631A773C9301B00093
:10028000B7050080378600001306F6FF3387C540A8
:10029000B783FF7F93831300631A773A9301C000FB
:1002A000B70500809385F5FF3786FFFF3387C5408C
:1002B000B78300809383F3FF631A77389301D000EC
:1002C000930500001306F0FF3387C5409303100029
:1002D000631E77369301E0009305F0FF13061000CC
:1002E0003387C5409303E0FF631277369301F00034
:1002F0009305F0FF1306F0FF3387C540930300001A
:1003000063167734930100019305D0001306B00003
:10031000B385C54093032000639A753293011001A1
:100320009305E0001306B0003386C5409303300008
:10033000631E7630930120019305D000B385B5404C
:1003400093030000639475309301300113020000A1
:100350009300D0001301B00033872040130307003F
:100360001302120093022000E31452FE93032000B4
:10037000631E732C93014001130200009300E00000
:100380001301B0003387204013000000130307005F
:100390001302120093022000E31252FE9303300076
:1003A0006316732A93015001130200009300F000BA
:1003B0001301B00033872040130000001300000039
:1003C000130307001302120093022000E31052FEF1
:1003D00093034000631C7326930160011302000025
:1003E0009300D0001301B0003387204013021200A5
:1003F00093022000E31652FE930320006318772433
:1004000093017001130200009300E0001301B0009B
:1004100013000000338720401302120093022000D3
:10042000E31452FE9303300063127722930180019C
:10043000130200009300F0001301B000130000004D
:1004400013000000338720401302120093022000A3
:10045000E31252FE93034000631A771E930190014A
:10046000130200009300D000130000001301B0003D
:10047000338720401302120093022000E31452FE3F
:10048000930320006314771C9301A0011302000062
:100490009300E000130000001301B00013000000FF
:1004A000338720401302120093022000E31252FE11
:1004B00093033000631C77189301B001130200000E
:1004C0009300F00013000000130000001301B000BF
:1004D000338720401302120093022000E31252FEE1
:1004E00093034000631477169301C00113020000C8
:1004F0001301B0009300D000338720401302120094
:1005000093022000E31652FE930320006310771439
:100510009301D001130200001301B0009300E0002A
:1005200013000000338720401302120093022000C2
:10053000E31452FE93033000631A77109301E00135
:10054000130200001301B0009300F000130000003C
:100550001300000033872040130212009302200092
:10056000E31252FE930340006312770E9301F001F1
:10057000130200001301B000130000009300D0002C
:10058000338720401302120093022000E31452FE2E
:1005900093032000631C770A9301000213020000FA
:1005A0001301B000130000009300E00013000000EE
:1005B000338720401302120093022000E31252FE00
:1005C00093033000631477089301100213020000B4
:1005D0001301B00013000000130000009300F000AE
:1005E000338720401302120093022000E31252FED0
:1005F00093034000631C770493012002930010FFD3
:10060000330110409303F000631271049301300230
:1006100093000002338100409303000263187102CB
:1006200093014002B3000040930300006390700206
:1006300093015002930000011301E0013380204038
:100640009303000063147000631030020F00F00F7A
:10065000638001009391110093E111009308D0058C
:1006600013850100730000000F00F00F93011000CC
:100670009308D0051305000073000000731000C03C
:10068000130000001300000013000000130000001E
:10069000130000001300000013000000130000000E
:1006A00013000000130000001300000013000000FE
:0C06B00013000000130000001300000005
:1010000000000000000000000000000000000000E0
:1010100000000000000000000000000000000000D0
:1010200000000000000000000000000000000000C0
:1010300000000000000000000000000000000000B0
:081040000000000000000000A8
:040000058000000077
:00000001FF
