:0200000480007A
:100000006F00C0006F2040346F2000349300000068
:10001000130100009301000013020000930200008E
:100020001303000093030000130400009304000076
:10003000130500009305000013060000930600005E
:100040001307000093070000130800009308000046
:100050001309000093090000130A0000930A00002E
:10006000130B0000930B0000130C0000930C000016
:10007000130D0000930D0000130E0000930E0000FE
:10008000130F0000930F00009702000093820201FB
:10009000739052307350447497020000938202F7B9
:1000A0007390523017B100001301C1ECF32240F1FC
:1000B0009392C2003301510073100134EF20D0132A
:1000C000173500001305C5946F204074832245083E
:1000D0007390121483204500032185008321C500FD
:1000E0000322050183224501032385018323C501E2
:1000F00003240502832445028325C5020326050344
:1001000083264503032785038327C50303280504A6
:1001100083284504032985048329C504032A05058A
:10012000832A4505032B8505832BC505032C05066E
:10013000832C4506032D8506832DC506032E050752
:10014000832E4507032F8507832FC50703258502C7
:100150007300201073110114232211002326310093
:1001600023284100232A5100232C6100232E7100F3
:1001700023208102232291022324A1022326B102FB
:100180002328C102232AD102232CE102232EF102CB
:1001900023200105232211052324210523263105CF
:1001A00023284105232A5105232C6105232E71059F
:1001B00023208107232291072324A1072326B107A7
:1001C0002328C107232AD107232CE107232EF10777
:1001D000F312011423245100F322001023205108AC
:1001E000F322101423225108F3223014232451083F
:1001F000F322201423265108130501006F20C03E6E
:1010000000000000000000000000000000000000E0
:1010100000000000000000000000000000000000D0
:1010200000000000000000000000000000000000C0
:1010300000000000000000000000000000000000B0
:081040000000000000000000A8
:10200000B3E7C500B367F50093F73700B306C50023
:10201000638407023386C50093070500637ED502FB
:1020200003C705009385150093871700A38FE7FE6C
:10203000E318B6FE67800000E37ED5FE9307050037
:1020400003A70500938747009385450023AEE7FE6D
:10205000E3E8D7FE6780000067800000B367C50033
:1020600093F73700130805003307C500638807029C
:10207000637AE504130101FE93F5F50F232E110099
:102080002326A100EFF09FFD0328C1008320C1019A
:102090001305080013010102678000006374E50264
:1020A00093F5F50F93968500B386B60093970601D6
:1020B000B386F600930705009387470023AED7FE4B
:1020C000E3ECE7FE13050800678000008347050086
:1020D000638E07009307050003C717009387170057
:1020E000E31C07FE3385A74067800000130500004E
:1020F00067800000130705008347070083C60500BB
:1021000013071700938515003385D74063860700B2
:10211000E384D7FE6780000067800000B367B500E6
:1021200093F73700639E07021378C6FF3308050153
:1021300063780503930705006F000001938747004C
:102140009385450063F8070183A6070003A70500F0
:10215000E386E6FE3385A7403306A64013850700D5
:102160003386C5006F0040018347F5FF03C70500B4
:1021700093851500639AE70013051500E396C5FEE5
:1021800013050000678000003385E740678000008A
:102190009307050003C70500938515009387170073
:1021A000A38FE7FEE31807FE6780000003470500E2
:1021B00093060002930705006318D70003C71700B2
:1021C00093871700E30CD7FE930657FD93F6D60FBF
:1021D0006394060483C61700130737FD13361700F0
:1021E0006386060493871700130500009387170082
:1021F000938506FD1317250083C607003307A70044
:10220000131717003385E500E39206FE630406000A
:102210003305A0406780000083C607001306000056
:10222000E39406FC1305000067800000130500001E
:102230006FF0DFFD83470500638C070A130101FB84
:10224000130EC10013030101930E0000930300005D
:1022500017F6FFFF130606DB97F6FFFF938686DE71
:10226000130F0004930F00001308100093080000E0
:102270002326F1002328E101232AF101232C010167
:10228000232E11012320C1032322D1032324010380
:102290002326110303270600832746001305150094
:1022A0003367F700630207021307000023A0E6006C
:1022B0009307000023A2F6000327060083274600A9
:1022C0003367F700E31207FE23206600232276001F
:1022D00003A7060083A746003367F700E30A07FE5B
:1022E00083470500E39607F81301010567800000A6
:1022F0006780000097F6FFFF9386C6D003A706000D
:1023000083A74600130805009358F5413367F7008B
:102310006306070217F6FFFF1306C6D21307000075
:102320002320E600930700002322F60003A70600FF
:1023300083A746003367F700E31207FE23A00601D8
:1023400023A216016F000000130101FF1305903452
:1023500023261100EFF01FFA130101FD13070500FA
:10236000232611021305C1001306B10113089000C2
:102370006F0080001306F6FF9376F700B337D8009E
:10238000B307F04093F7770293870703B386F6000D
:10239000135747009397C5012300D6003387E70002
:1023A00093D54500E318C5FC230E0100EFF09FE82C
:1023B0008320C1021301010367800000130101FDA6
:1023C0009307100013070580232EF1002326110226
:1023D000232C010013070780B7E70300637AF71A7D
:1023E000B7F6FFFFB377D50013D8C700130708402F
:1023F00093162700973800009388C8C0B386D8008A
:1024000083A60600639206129756000083A6C6BFF5
:10241000232481026380061C03A646009755000012
:1024200083A545BE175500002320C5BE630CB61416
:10243000138507001306C1019305810103A406005B
:102440002326E100232401012322F1002320D100CF
:10245000EF00405B832601008327410003288100B1
:102460000327C100973800009388C8B9631C050E84
:102470001356C4001316A6001366F6019315270021
:10248000B385B8001365060C23A0A500738007125E
:1024900097250000938505B713183800B38505010B
:1024A00003A50500631E051003A8060037050400F8
:1024B00023A0050183A6460023A2D500732805109A
:1024C000B706C0FFB386D700371500003385A600D6
:1024D0009385070003A3860083AE060003AE460083
:1024E00023A4650023A0D50123A2C50103A3C60030
:1024F000938606019385050123AE65FEE39CA6FC49
:1025000073100810131727003387E8002320C70033
:10251000738007120F100000032481028320C10280
:10252000130101036780000013F606046308060424
:1025300013D676001376160063180606938515FFEA
:1025400093E6060863920506131727003387E80011
:102550002320D700738007128320C10213010103D7
:102560006780000003A60600832581011356C6007C
:102570001316A6003366B6006FF05FF093E606040C
:102580006FF09FFC17560000232E06A66FF05FEA3F
:10259000171500001305059523248102EFF09FC94C
:1025A00013053000EFF01FD51715000013054598EF
:1025B00023248102EFF01FC813053000EFF09FD3F2
:1025C000171500001305C59CEFF0DFC6130530009A
:1025D000EFF05FD2171500001305059AEFF09FC5C5
:1025E00013053000EFF01FD1130101FE232C8100F1
:1025F000232E110013040500EF004040631005086E
:102600008325C408930780006380F50A93072000A0
:10261000638AF502938745FF93B727006396070007
:10262000938715FF6396070603258408EFF01FD9EB
:1026300013050400032481018320C1011301010259
:102640006FD0DFA88327440813F7370063100718FB
:1026500003A70700EF0780007310300083A707006F
:10266000232A91006302F702171500001305C59E87
:10267000EFF05FBC13053000EFF0DFC71305040077
:10268000EFD0DFA46FF0DFF713051000EFF09FC667
:10269000171500001305059F232A9100EFF09FB93D
:1026A00013053000EFF01FC58327840237140000A4
:1026B000232A910093080400938407001728000040
:1026C0001308489437F303009357C4001397370057
:1026D000B306E80083A60600638A060C93870740CA
:1026E000973600009386069293972700B387F600EB
:1026F00083A7070093F607046386060E2326F100DE
:102700002322E100B7070400F3A60710B707C0FFB4
:10271000B305F40013050400371600002320D10090
:102720002324B100EFF09F9F83260100032741007F
:10273000172800001308088DB7180000175E000066
:10274000130E4E8C37F30300630405048327C10086
:102750008325810093F707086380070A9307040025
:102760003306140103A5870003AF070083AE4700BB
:1027700023A4A50023A0E50123A2D50103A5C7003A
:10278000938707019385050123AEA5FEE39CC7FC53
:102790003307E8007390061083270E0023200700FC
:1027A000638E070023A2E7002320EE003304140108
:1027B000E31C64F013850400EFF0DFB32320EE0088
:1027C0009757000023A2E7846FF05FFE1715000003
:1027D00013054586232A9100EFF0DFA5130530008D
:1027E000EFF05FB1170500001305457EEFF09FA4E1
:1027F00013053000EFF01FB01715000013054580DA
:10280000EFF05FA313053000EFF0DFAEF32740F1E8
:10281000639A0716130101F6232C8108130405009F
:10282000173500001305057E1357C50097250000D6
:102830009385457D1317A70037060020232E110826
:102840001306F60C1367170093D6C500B707008070
:1028500023A0E500232EC5FE33E7F600731007180A
:10286000F32600186310D718738007121307F001BE
:102870009387F7FF9702000093824201F392523050
:102880007390073B7310073A7390523097E7BF7FFE
:102890009387878C73905710F32700343707C07FD6
:1028A000B387E70073900714B7B70000938707104A
:1028B00073902730B7E70100938707607390073064
:1028C000735040309727C07F938747931747000086
:1028D000232CF7729727C07F938747B117470000D3
:1028E0002322F77237030800B708C07F1303F303EE
:1028F000938888001727000013074790172E0000C1
:10290000130E4EAF9307B000930500009396F501A8
:1029100013D617003386C600B346F600B3876700A8
:102920009397C70033081701939656002320F700AA
:1029300093F60602232207011307870093D515009B
:10294000B367D600E314EEFC13050100130600097B
:10295000930500009727000023AC07A8EFF00FF0C5
:10296000B70700803304F400130501002322810817
:10297000EFD0CFF58320C109032481091301010A97
:1029800067800000B777C607370608009387C7350A
:102990001306C6FF13070000370800803705004004
:1029A0006F00C0022FA006009315F70193D6170001
:1029B000B386D500B3C7D7009397E701B3F7A70055
:1029C0001357170033E7E70093870600B3F6C700F5
:1029D00093F51700B3860601E39605FC03A00600F5
:1029E0006FF09FFC170500001305856CEFF09F84C6
:1029F00013053000EFF01F90678000001305000002
:102A0000678000001305000067800000930120002C
:102A1000B70501FF938505F037160F0F1306F6F083
:102A200033F7C500B713000F938303F0631C774897
:102A300093013000B715F00F938505FF37F6F0F0DE
:102A40001306060F33F7C500B703F0009383030F97
:102A5000631A774693014000B705FF009385F50F91
:102A600037160F0F1306F6F033F7C500B7030F0044
:102A70009383F3006318774493015000B7F50FF088
:102A80009385F50037F6F0F01306060F33F7C5000F
:102A9000B7F300F06318774293016000B70501FFB8
:102AA000938505F037160F0F1306F6F0B3F5C50042
:102AB000B713000F938303F0639675409301700082
:102AC000B715F00F938505FF37F6F0F01306060FE4
:102AD00033F6C500B703F0009383030F6314763E0B
:102AE00093018000B70501FF938505F0B3F5B500AC
:102AF000B70301FF938303F06396753C9301900045
:102B000013020000B70001FF938000F037110F0F90
:102B10001301F1F033F72000130307001302120032
:102B200093022000E31052FEB713000F938303F0CB
:102B3000631A73389301A00013020000B710F00F5E
:102B4000938000FF37F1F0F01301010F33F72000FD
:102B50001300000013030700130212009302200069
:102B6000E31E52FCB703F0009383030F631C73341E
:102B70009301B00013020000B700FF009380F00F34
:102B800037110F0F1301F1F033F72000130000008D
:102B90001300000013030700130212009302200029
:102BA000E31C52FCB7030F009383F300631C7330E4
:102BB0009301C00013020000B70001FF938000F0F2
:102BC00037110F0F1301F1F033F720001302120039
:102BD00093022000E31252FEB713000F938303F019
:102BE0006312772E9301D00013020000B710F00F8C
:102BF000938000FF37F1F0F01301010F1300000084
:102C000033F720001302120093022000E31052FE5B
:102C1000B703F0009383030F6316772A9301E00054
:102C200013020000B700FF009380F00F37110F0F61
:102C30001301F1F0130000001300000033F720002F
:102C40001302120093022000E31E52FCB7030F0090
:102C50009383F300631877269301F00013020000BA
:102C6000B70001FF938000F01300000037110F0F31
:102C70001301F1F033F72000130212009302200039
:102C8000E31052FEB713000F938303F0631C772207
:102C90009301000113020000B710F00F938000FFB2
:102CA0001300000037F1F0F01301010F13000000D2
:102CB00033F720001302120093022000E31E52FC9F
:102CC000B703F0009383030F631E771E9301100177
:102CD00013020000B700FF009380F00F1300000004
:102CE0001300000037110F0F1301F1F033F720002C
:102CF0001302120093022000E31E52FCB7030F00E0
:102D00009383F3006310771C9301200113020000EA
:102D100037110F0F1301F1F0B70001FF938000F09E
:102D200033F720001302120093022000E31252FE38
:102D3000B713000F938303F06316771893013001E4
:102D40001302000037F1F0F01301010FB710F00F7C
:102D5000938000FF1300000033F7200013021200DD
:102D600093022000E31052FEB703F0009383030F99
:102D7000631A7714930140011302000037110F0FFB
:102D80001301F1F0B700FF009380F00F1300000073
:102D90001300000033F720001302120093022000FA
:102DA000E31E52FCB7030F009383F300631C7710FC
:102DB000930150011302000037110F0F1301F1F0BE
:102DC00013000000B70001FF938000F033F72000EC
:102DD0001302120093022000E31052FEB713000FFB
:102DE000938303F06310770E9301600113020000D8
:102DF00037F1F0F01301010F13000000B710F00FCE
:102E0000938000FF1300000033F72000130212002C
:102E100093022000E31E52FCB703F0009383030FDC
:102E20006312770A930170011302000037110F0F2C
:102E30001301F1F01300000013000000B700FF00C1
:102E40009380F00F33F7200013021200930220004A
:102E5000E31E52FCB7030F009383F300631477065D
:102E600093018001B70001FF938000F033711000DF
:102E7000930300006318710493019001B700FF00F1
:102E80009380F00F33F1000093030000631C710284
:102E90009301A001B37000009303000063947002DB
:102EA0009301B001B7101111938010113721222224
:102EB0001301212233F020009303000063147000FB
:102EC000631A3000139511006300050013651500A7
:102ED000730000001305100073000000731000C0A1
:102EE000417373657274696F6E206661696C6564A5
:102EF0003A2061646472203E3D202831554C203CCC
:102F00003C203132292026262061646472203C2036
:102F1000282831203C3C2036292D3129202A202800
:102F200031554C203C3C203132290A0041737365F5
:102F30007274696F6E206661696C65643A2021283D
:102F400070745B315D5B616464722F2831554C2075
:102F50003C3C203132295D20262030783038302921
:102F6000202626206361757365203D3D20307866FC
:102F70000A000000417373657274696F6E206661A8
:102F8000696C65643A206E6F64650A00417373650D
:102F90007274696F6E206661696C65643A2075733E
:102FA00065725F6D617070696E675B616464722FDA
:102FB0002831554C203C3C203132295D2E6164641F
:102FC00072203D3D20300A00417373657274696F51
:102FD0006E206661696C65643A2070745B315D5B7C
:102FE000616464722F2831554C203C3C20313229D9
:102FF0005D20262030783034300A0000417373653C
:103000007274696F6E206661696C65643A207074D1
:103010005B315D5B616464722F2831554C203C3C10
:10302000203132295D20262030783038300A0000E7
:10303000417373657274696F6E206661696C656453
:103040003A2074662D3E65706320252034203D3D76
:1030500020300A00417373657274696F6E20666177
:10306000696C65643A202122696C6C6567616C202B
:10307000696E737472756374696F6E220A00000062
:10308000417373657274696F6E206661696C656403
:103090003A202122756E65787065637465642065D9
:1030A0007863657074696F6E220A000041737365FE
:1030B0007274696F6E206661696C65643A202122C2
:1030C000756E737570706F7274656420736174705F
:0830D000206D6F6465220A0007
:040000058000000077
:00000001FF
